:020000040800F2
:1000000080060020350200083D0200083F0200087B
:1000100041020008430200084502000800000000F9
:10002000000000000000000000000000470200087F
:1000300049020008000000004B020008810C000883
:100040004F0200084F0200084F0200084F0200084C
:100050004F0200084F0200084F0200084F0200083C
:100060004F0200084F0200084F0200084F0200082C
:100070004F0200084F0200084F0200084F0200081C
:100080004F0200084F0200084F0200080000000065
:100090000000000000000000000000004F02000807
:1000A0004F0200084F0200084F0200084F020008EC
:1000B0004F0200084F0200084F0200084F020008DC
:1000C0004F0200084F0200084F0200084F020008CC
:1000D0004F0200084F0200084F0200080000000015
:1000E0004F0200084F0200084F0200080000000005
:1000F0000000000000000000000000004F020008A7
:10010000000000004F0200084F0200084F020008E4
:1001100000000000000000000000000000000000DF
:100120004F0200084F0200084F0200084F0200086B
:100130004F02000800000000000000000000000066
:100140000000000000000000000000004F02000856
:100150004F0200084F0200084F0200084F0200083B
:100160004F0200084F0200080000000000000000DD
:10017000000000000000000000000000000000007F
:10018000000000004F020008000000000000000016
:100190004F02000800F002F800F03CF80AA090E8D6
:1001A000000C82448344AAF10107DA4501D100F032
:1001B00031F8AFF2090EBAE80F0013F0010F18BFC3
:1001C000FB1A43F001031847D80D0000F80D00009A
:1001D000103A24BF78C878C1FAD8520724BF30C873
:1001E00030C144BF04680C60704700000023002445
:1001F00000250026103A28BF78C1FBD8520728BF37
:1002000030C148BF0B6070471FB500F0ABFE1FBD8B
:1002100010B510BD00F031F81146FFF7F5FF00F002
:100220001DFE00F04FF803B4FFF7F2FF03BC00F02F
:1002300057F800000948804709480047FEE7FEE7F5
:10024000FEE7FEE7FEE7FEE7FEE7FEE7FEE7FEE786
:1002500004480549054A064B70470000B90D0008DF
:100260009501000880000020800600208002002008
:1002700080020020704770477047754600F02CF8E8
:10028000AE4605006946534620F00700854618B083
:1002900020B5FFF7DDFFBDE820404FF000064FF02E
:1002A00000074FF000084FF0000BAC46ACE8C00967
:1002B000ACE8C009ACE8C009ACE8C00921F007010E
:1002C0008D46704710B50446AFF300802046BDE868
:1002D0001040FFF7A8BF0000004870471000002042
:1002E00001491820ABBEFEE726000200704700005F
:1002F00080B584B0039000F0E7F902900398019074
:100300000198013048B1FFE740F20400C2F200005A
:100310000178019808440190FFE7FFE700F0D4F965
:100320000299401A0199884201D2FFE7F6E704B02A
:1003300080BD00008BB00A900991002007900690C4
:1003400005900890FFE708980F2800F2A281FFE7C8
:10035000089901208840079009980068079908408B
:10036000069006980799884240F08E81FFE7099829
:10037000406800F00300012807D0FFE709984068B3
:1003800000F0030002282FD1FFE70A98806805904B
:1003900008984100032000FA01F105988843059070
:1003A0000998C0680899490000FA01F105980843C6
:1003B000059005980A9988600A9840680590089900
:1003C000012000FA01F105988843059009984068DA
:1003D000C0F30010089900FA01F105980843059050
:1003E00005980A994860FFE70998406800F0030003
:1003F000032818D0FFE70A98C068059008984100C4
:10040000032000FA01F10598884305900998806857
:100410000899490000FA01F10598084305900598EC
:100420000A99C860FFE70998406800F003000228B5
:1004300026D1FFE70A9808996FF0030202EA5101FA
:100440000844006A0590089800F0070081000F201A
:1004500000FA01F105988843059009980069089908
:1004600001F00701890000FA01F1059808430590A1
:1004700005980A99089B02EA530211440862FFE7B3
:100480000A980068059008984100032000FA01F1DD
:100490000598884305900998406800F00300089982
:1004A000490000FA01F105980843059005980A995A
:1004B0000860099880798007002800F0E480FFE751
:1004C000FFE70020049043F64400C4F202000168F4
:1004D00041F480410160006800F480400490049879
:1004E000FFE7089820F0030043F60801C4F2010179
:1004F00040580590089800F0030081000F2000FA92
:1005000001F10598884305900A980021C4F2020180
:10051000884203D1FFE70020039034E00A9840F2BC
:100520000041C4F20201884203D1FFE7012002909A
:1005300026E00A9840F60001C4F20201884203D185
:10054000FFE70220019018E00A9840F60041C4F24B
:100550000201884203D1FFE7032000900AE00A99D4
:1005600041F20002C4F202020720914208BF0420B7
:100570000090FFE700980190FFE701980290FFE7E5
:1005800002980390FFE70398C0B2089901F00301B5
:10059000890000FA01F1059808430590059808992B
:1005A00021F0030143F60802C4F20102885043F629
:1005B0000840C4F201000068059006990598884338
:1005C000059009988079C006002805D5FFE70699AF
:1005D000059808430590FFE7059843F60841C4F2E3
:1005E0000101086043F60C40C4F201000068059068
:1005F0000699059888430590099880798006002817
:1006000005D5FFE70699059808430590FFE705988B
:1006100043F60C41C4F20101086043F60440C4F201
:10062000010000680590069905988843059009988F
:1006300080798007002805D5FFE7069905980843CB
:100640000590FFE7059843F60441C4F201010860F4
:1006500043F60040C4F20100006805900699059831
:100660008843059009988079C00728B1FFE706996B
:10067000059808430590FFE7059843F60041C4F24A
:1006800001010860FFE7FFE7FFE7089801300890E5
:1006900059E60BB07047000082B00190ADF802102F
:1006A0008DF801209DF8010028B1FFE7BDF8020098
:1006B0000199886105E0BDF8020000040199886194
:1006C000FFE702B07047000040F27800C2F200007D
:1006D0000068704740F20400C2F20000027840F265
:1006E0007801C2F2000108681044086070470000F9
:1006F00080B543F60041C4F20201086840F400707E
:100700000860086840F480600860032000F05CF82E
:100710000F2000F005F800F03BF8002080BD00003D
:1007200080B582B0009040F20000C2F20000006884
:1007300040F20401C2F200010A784FF47A71B1FB71
:10074000F2F1B0FBF1F000F047F820B1FFE7012033
:100750008DF8070018E000980F280DD8FFE70099E2
:100760004FF0FF30002200F015F8009840F2080129
:10077000C2F20001086003E001208DF8070003E0E9
:1007800000208DF80700FFE79DF8070002B080BD4C
:100790007047000080B586B08DF817000491039271
:1007A0000020029000F012FB02909DF917000190CA
:1007B00002980499039A00F003FA0146019800F0A8
:1007C0000DFB06B080BD000080B582B0019001989D
:1007D00000F026FB02B080BD80B582B00190019888
:1007E00000F024FA02B080BD80B5012000F004F8CA
:1007F000052000F0A5F880BD80B582B08DF8070017
:100800000020C4F202004FF400710022FFF744FF01
:100810009DF80700000900F009F89DF8070000F0B6
:100820000F0000F003F802B080BD000080B586B074
:100830008DF817009DF8170000F008020020C4F2A0
:1008400002004FF48071FFF727FF9DF8170000F0BA
:10085000040240F20040C4F2020001904FF48061B3
:10086000FFF71AFF01989DF8171001F002021021FE
:10087000FFF712FF01989DF8171001F001022021E7
:10088000FFF70AFF40F60000C4F202000290802148
:1008900003910122FFF700FF3220049000F05AF884
:1008A000029803990022FFF7F7FE049800F052F82F
:1008B00006B080BD80B582B08DF807008DF80610B7
:1008C00044F20000C5F2144000909DF80600022892
:1008D00004DBFFE700208DF80600FFE79DF8070026
:1008E00040F27001C2F20001C8709DF80600087164
:1008F0009DF807009DF806206946895C084440F091
:100900008000C0B2FFF778FF02B080BD80B582B032
:100910008DF807000020C4F202004FF4007101229C
:10092000FFF7BAFE9DF807000009FFF77FFF9DF86B
:10093000070000F00F00FFF779FF02B080BD000054
:1009400080B582B08DF807009DF80700FFF7D0FC56
:1009500002B080BD80B584B0ADF80E004EF2140038
:10096000CEF200000068013044F6D351C1F26201BA
:10097000A0FB011080090290FFF7A6FE4FF47A71E8
:1009800048434EF21801CEF200010968029AB1FB09
:10099000F2F1401A00F57A700190FFE7FFF794FE3C
:1009A0004FF47A7148434EF21801CEF20001096803
:1009B000029AB1FBF2F1401A0199401A00F57A70DF
:1009C000BDF80E10884201D2FFE7E7E704B080BD12
:1009D00080B540F27000C2F20000017841F00401DD
:1009E0000170007840F00800FFF706FF80BD0000AE
:1009F00080B58CB00120089002200A900020099058
:100A00004FF4007007900020C4F20200059007A97F
:100A10000691FFF78FFC06998020079040F60000B2
:100A2000C4F20200FFF786FC059806990822079297
:100A3000FFF780FC06992020079040F20040C4F2A6
:100A400002000490FFF776FC0498069910220792A2
:100A5000FFF770FC049806994FF480620792FFF745
:100A600069FC059806994FF480720792FFF762FCC3
:100A7000FFE7FFF729FEC72804D8FFE70120FFF7AB
:100A80005FFFF6E740F27001C2F200010291002020
:100A9000C87008714870487840F00800487003201A
:100AA0000090FFF7C3FE05200390FFF749FF009871
:100AB000FFF7BCFE0398FFF743FF0098FFF7B6FE71
:100AC0000398FFF73DFF02200190FFF7AFFE039868
:100AD000FFF736FF0298407840F02000FFF78CFEC9
:100AE000029904200870FFF773FFFFF77DFE01995C
:100AF00002988170807840F00400FFF77DFE039833
:100B0000FFF71EFF0CB080BD80B582B08DF80700E6
:100B10008DF8061000929DF807009DF80610FFF76B
:100B2000C9FEFFE700980078002846D0FFE740F2B2
:100B30007000C2F20000C07810280EDBFFE740F220
:100B40007001C2F200010020C870087901300871FC
:100B5000C8780979FFF7AEFEFFE7009800780A2809
:100B60000CD1FFE740F27001C2F2000108790130B8
:100B70000871C8780979FFF79DFE1AE0009800789F
:100B80000D2809D1FFE740F27000C2F200000179A0
:100B90000020FFF78FFE0BE000980078FFF7B6FE0D
:100BA00040F27001C2F20001C8780130C870FFE75E
:100BB000FFE7009801300090B4E702B080BD00006C
:100BC00088B0079006910592079800F007000490FE
:100BD0000498C0F10700052803D3FFE70420019023
:100BE00004E00498C0F107000190FFE7019803902A
:100BF00004980430062803D8FFE70020009003E0A3
:100C0000049803380090FFE7009802900698039933
:100C1000012202FA01F101390840029B984005992E
:100C20009A40013A1140084308B0704780B582B03D
:100C3000009000980138B0F1807F03D3FFE70120D6
:100C4000019019E0009801384EF21401CEF2000133
:100C500008604FF0FF300F2100F0C0F84EF218018D
:100C6000CEF20001002008604EF21002CEF2000227
:100C7000072111600190FFE7019802B080BD0000DC
:100C800080B5FFF727FD80BD86B000210591049156
:100C9000022003900291019043F60800C4F2020082
:100CA000006800F00C0005900598009040B1FFE747
:100CB000009804280ED0FFE70098082814D059E0C7
:100CC00040F20001C2F2000142F20040C0F2F40022
:100CD000086059E040F20001C2F2000147F640000E
:100CE000C0F27D1008604FE043F60400C4F2020039
:100CF0000168C1F380510291006800F03F0001904B
:100D0000029888B1FFE7019947F64000C0F27D10D4
:100D1000B0FBF1F043F60401C4F202010968C1F32B
:100D200088114843049010E0019942F20040C0F25B
:100D3000F400B0FBF1F043F60401C4F202010968CB
:100D4000C1F3881148430490FFE743F60400C4F25E
:100D50000200006800F44031022000EBD130039023
:100D600004980399B0FBF1F040F20001C2F20001D7
:100D7000086009E040F20001C2F2000142F20040C6
:100D8000C0F2F4000860FFE743F60800C4F2020076
:100D90000068C0B2010940F67E70C0F60000405CF9
:100DA0000590059A40F20001C2F200010868D040A7
:100DB000086006B0704700004EF68851CEF2000180
:100DC000086840F470000860704700004EF60C5050
:100DD000CEF200000068C0F30220704782B08DF8A8
:100DE000070000919DF9070000280AD4FFE700984A
:100DF00000019DF907104EF20042CEF20002885425
:100E00000BE0009800019DF8071001F00F014EF66D
:100E10001452CEF200028854FFE702B0704700007F
:100E200083B00290029800F0070000904EF60C513B
:100E3000CEF200010868019001984FF6FF021040C1
:100E400001900198009A40EA02200022C0F2FA5272
:100E5000104301900198086003B0704780B58CB0D2
:100E600000200B90FFF710FFFFF742FCFFE7002088
:100E70000A9043F63000C4F20200016841F001011B
:100E80000160006800F001000A900A98FFE7FFE7A0
:100E90000020099043F63000C4F20200016841F0DE
:100EA00002010160006800F0020009900998FFE764
:100EB000FFE70020089043F63000C4F2020001680A
:100EC00041F004010160006800F0040008900898F7
:100ED000FFE720200390012004900020019005905E
:100EE000022006900020C4F2020003A9FFF722FAB4
:100EF000FFF77EFD019940F68E72C0F600020846AB
:100F0000FFF702FE019802900290FFE7029844F278
:100F10004021C0F20F01884205DCFFE7FFE702989D
:100F200001300290F2E7FFF75FFC40F69572C0F6E1
:100F30000002002100910846FFF7E6FD00980290AC
:100F4000FFE702984CF2C061C0F22D01884205DC37
:100F5000FFE7FFE7029801300290F2E7FFF744FC59
:100F6000FFE7FEE7F1EE100A4FF6FF71C0F2C03165
:100F700020EA010040F04070E1EE100A70470000E6
:100F8000000000000000010203040607080948658C
:100F90006C6C6F2100393932343330343700000043
:100FA000C00F00080000002010000000D001000861
:100FB000D00F00081000002070060000EC010008AF
:100FC0000024F400010000001000000000000000F8
:040000050800019559
:00000001FF
