:020000040800F2
:1000000098060020E1020008E9020008EB0200085F
:10001000ED020008EF020008F102000800000000F5
:10002000000000000000000000000000F3020008D3
:10003000F502000800000000F7020008951F000804
:10004000FB020008FB020008FB020008FB0200089C
:10005000FB020008FB020008FB020008FB0200088C
:10006000FB020008FB020008FB020008FB0200087C
:10007000FB020008FB020008FB020008FB0200086C
:10008000FB020008FB020008FB0200080000000061
:10009000000000000000000000000000FB0200085B
:1000A000FB020008FB020008FB020008FB0200083C
:1000B000FB020008FB020008FB020008FB0200082C
:1000C000FB020008FB020008FB020008FB0200081C
:1000D000FB020008FB020008FB0200080000000011
:1000E000FB020008FB020008FB0200080000000001
:1000F000000000000000000000000000FB020008FB
:1001000000000000FB020008FB020008FB020008E0
:1001100000000000000000000000000000000000DF
:10012000FB020008FB020008FB020008FB020008BB
:10013000FB020008000000000000000000000000BA
:10014000000000000000000000000000FB020008AA
:10015000FB020008FB020008FB020008FB0200088B
:10016000FB020008FB020008000000000000000085
:10017000000000000000000000000000000000007F
:1001800000000000FB02000800000000000000006A
:10019000FB02000800F002F800F092F80AA090E8D4
:1001A000000C82448344AAF10107DA4501D100F032
:1001B00087F8AFF2090EBAE80F0013F0010F18BF6D
:1001C000FB1A43F001031847C8300000E830000074
:1001D000103A24BF78C878C1FAD8520724BF30C873
:1001E00030C144BF04680C60704700000023002445
:1001F00000250026103A28BF78C1FBD8520728BF37
:1002000030C148BF0B6070476E2900F041817029F2
:1002100000F08382662902F06887652902F065870D
:10022000672902F06287612902F0618703681B0A6F
:1002300028BF41F08001692900F0EE80642900F0B8
:10024000EB80752900F0E8806F2900F01182782991
:1002500000F04F82E92900F0AB81E42900F0A88189
:10026000F52900F0A581EF2900F00E82F82900F0B1
:100270004E820368DB0928BF41F08001632900F04A
:100280004F87732900F05487E32900F05F87F32933
:1002900000F06487002070471FB502F019FF00F0DE
:1002A000B3FF04000020002102F0FCFE401C60604F
:1002B0000020002102F0E0FEE0601FBD10B510BD7F
:1002C00000F074FF1146FFF7E7FF01F071FF01F046
:1002D00051F803B4FFF7F2FF03BC01F097F80000F8
:1002E0000948804709480047FEE7FEE7FEE7FEE7CA
:1002F000FEE7FEE7FEE7FEE7FEE7FEE70448054906
:10030000054A064B70470000CD2000089501000803
:1003100098000020980600209802002098020020F3
:100320000FB41CB5084B06AA7B446946009005989B
:1003300000F0C7F804460020694600F0D5F82046D2
:100340001CBC5DF814FB0000BD0100007047704745
:10035000704770B5044685690068C10601D530262E
:1003600000E02026C00707D070BDD4E90121304647
:100370009047206A401C20626D1EF6D570BD70B596
:10038000044685690078C00707D170BDD4E9012112
:1003900020209047206A401C20626D1EF6D570BD5B
:1003A00009684A0501D540B27047C905FCD500B2BD
:1003B000704709684A0501D5C0B27047C905FCD528
:1003C00080B2704770B50C460546012A05D02878E2
:1003D000800600D5EA69002302E0012305E05B1CEA
:1003E000934202D2E05C0028F9D1A869E618C01A4D
:1003F000A861286A184428622846FFF7AAFF04E08B
:10040000D5E9012114F8010B9047B442F8D32846EE
:10041000FFF7B5FF70BD00002DE9F041064600244E
:1004200010687529314616A510D0FFF7B9FF0028CE
:1004300002DA404213A507E031688A0701D512A508
:1004400002E0490704D511A5012401E0FFF7B1FF3F
:1004500000210A2206F1240709E0B0FBF2FCB0FB00
:10046000F2F302FB1C00303078541846491C002877
:10047000F3D123462A463046BDE8F04100F061BA88
:10048000000000002D0000002B00000020000000F4
:1004900011680268006A530501D508700AE0D305A7
:1004A00001D5088006E0130603D5C217C1E9000292
:1004B00000E008600120704701694A1C0261087869
:1004C000704700B58FB0CDE9013100210591054994
:1004D0007944CDE903101146684600F029F90FB0C0
:1004E00000BD0000E5FFFFFF0A6802F8010B0A608B
:1004F000704700002DE9FF5F15468A460446DFF885
:10050000AC80F8440027D8E900103E46CDE9001041
:1005100010E03AF816106A4602A800F023FE411CCB
:1005200007D02178890603D5E269391891420DD8A0
:100530000744761C2078800602D5E069B84205DDC4
:10054000AE42E6DB3AF816000028E2D1A069C01BF3
:10055000A0612046FFF7FDFED8E90010CDE90010AC
:10056000002017E03AF818106A4602A800F0FAFDD9
:10057000B0F1FF3F81460BD000250DF1080B05E0DF
:10058000D4E901211BF8050090476D1C4D45F7D3B8
:1005900008F10100B0428046E4DB206A3844206262
:1005A0002046FFF7ECFEBDE8FF9F0000EE2B0000A9
:1005B0002DE9F0418046D21D22F007020025D2E944
:1005C0000002F52915A614D0011E72F1000106DA09
:1005D0000023D0EB030063EB020211A608E0D8F879
:1005E00000108B0701D50FA602E0490701D50EA622
:1005F00001251146002408F1240704E000F05CF90D
:1006000030323A55641C50EA0102F7D12B4632468B
:1006100021464046BDE8F04100F093B900000000DB
:100620002D0000002B0000002000000030B400214D
:1006300000F1240408E002F00705D208303542EA50
:100640004372DB086554491C52EA0305F3D1046880
:10065000002310A2250708D504F020040C4304D081
:10066000C46901230CA2641EC46130BC00F069B9E6
:1006700010B5044621461068FFF79BFE024620464F
:10068000BDE810400023D1E7D21D22F00701D1E9D7
:100690000023CBE70000000030000000F0B40D465E
:1006A0000188090502D5214C7C4402E01F4C7C44A2
:1006B0000E34002100F1240608E002F00F071209B1
:1006C000E75D42EA03721B097754491C52EA0307AB
:1006D000F3D102780023120704D5702D06D009B19A
:1006E000022311342246F0BC00F02BB90123103450
:1006F000F8E770B504460D4621461068FFF759FE2D
:10070000024629462046BDE870400023C6E7D21DB8
:1007100022F00703D3E90023C0E70368126843F01F
:10072000200303600823C3610023B7E7502A0000B9
:100730002DE9F05F894604464FF0000ADFF874B1F6
:10074000FB44C0F820A02046E1688847002874D008
:10075000252806D0D4E901219047206A401C206258
:10076000F1E700265F462046E168884720280546D5
:1007700007DB312D05D2781910F8200C08B106439B
:10078000F1E7B00701D526F00406C4F81CA0002745
:10079000C4F818A02A2D09D0284602F065FC38B309
:1007A00004EB8708303DC8F8185019E059F8041BCD
:1007B000204604EB87029161E1688847012F0546D6
:1007C00018D1E069002820DA26F020061DE0D8F8CC
:1007D000180000EB800005EB40003038C8F8180026
:1007E0002046E1688847054602F03EFC0028EED12D
:1007F000012F0AD02E2D08D12046E16888477F1CA2
:100800000546022F46F02006C4DBA069002803DA63
:10081000404246F00106A061F00701D026F0100624
:100820006C2D0BD0682D09D04C2D39D06A2D35D0C8
:10083000742D35D07A2D33D016E038E0E1682F469C
:1008400020468847B842054609D16C2F26D04FF480
:100850008060E168064320468847054604E06C2F27
:100860001AD04FF4807006430DB3A5F1410019284A
:1008700002D8203546F400664A46294620462660BE
:100880004E46FFF7C1FC80B101280BD0F61D26F0C3
:10089000070000F1080956E74020E4E78020D8E788
:1008A0000020D6E706F104094DE7284652E7206A02
:1008B000BDE8F09FE029000030B5B0F10A0271F107
:1008C00000034FEA900E4EEA817EB0EB0E0061EB22
:1008D00091014FEA101E4EEA017E10EB0E0041EB33
:1008E00011114FEA102E4EEA016E10EB0E0041EB93
:1008F00011214FEA104E4EEA014E10EB0E0041EB73
:100900001141401841F100014FEAD00040EA417026
:100910004FEAD1014FEA810444EA907410EB80055C
:1009200044EB01046D1944EB0404521BA3414FF046
:10093000000348BF0A3200D530BD401C41F1000120
:1009400030BD2DE9F0470D4699469246044600F128
:1009500024080168880604D5E06921F010012160AF
:1009600000E00120A84201DD471B00E00027A1694B
:100970007A1902EB0900081AA0612078C00602D497
:100980002046FFF7E6FC002608E0D4E901211AF82A
:1009900006009047206A401C761C20624E45F4DB1E
:1009A0002078C0060AD52046FFF7D3FC06E0D4E93C
:1009B000012130209047206A401C2062381EA7F198
:1009C0000107F4DC07E0D4E9012118F8050090479D
:1009D000206A401C2062281EA5F10105F3DC204698
:1009E000FFF7CDFC2078000602D50220BDE8F08795
:1009F0000120FBE72DE9FF4F0C461E464FF0FF3765
:100A00008BB0D2E90001DDF860800A908A46C1F31C
:100A10000A5505B93D46002108464FF00000BAF1DD
:100A2000000F00F4400005DA00EB80004FF44001B5
:100A300001EA50004FEA9059B9F1010F00DDB946C3
:100A40000A9850EA4A000ED044F61050A5F2FF353D
:100A500045432F14B8F1000F1ED07542291E1EDD2C
:100A6000C9F100021CE0B8F1010F4FF0000001D005
:100A7000302103E0F24305E02154401CB042FBDB8F
:100A800030460022002121540B99C1F80880C1E9A9
:100A900000200FB0BDE8F08FBD1B6D1CDEE74A469D
:100AA00000DA694206A800F0F3FB06AB93E8070002
:100AB00003AB83E8070050460A9901F0F4FE8DE885
:100AC0000700A0F500501F3800900398002D0ADDA4
:100AD00042F21F014A460844002303A903906846D6
:100AE00002F05EF909E0A0F500504A461F380023E5
:100AF00003A90390684602F068F98DE80700000436
:100B0000000C03D04FF0FF30410800E01046B8F170
:100B1000000F03D00022009215461EE0751E05D47A
:100B2000FFF7CAFE303262556D1EF9D5B346012279
:100B3000084302D000227F1C04E02078302801D135
:100B400000227F1E002A099784D01DE0112D07DAAC
:100B5000FFF7B2FE303262556D1C50EA0102F5D14A
:100B6000084302D00098C8B10EE00021681E05E0DD
:100B7000235C625C63542254401E491C8142F7DBB3
:100B8000AB46A81B401E0990002004F80B000B98F0
:100B9000099AC0F80880C0E9002B7AE711264FF0C7
:100BA000000857E72DE9F04F88460446D21D22F091
:100BB000070191B0D1E90001CDE90A0102F03CFA48
:100BC00002460B98C00F01D02D2007E02068810756
:100BD00001D52B2002E0202101EAC000032A099060
:100BE00001D0072A05DB03464146204600F010FBF2
:100BF0000BE12078800601D5E06900E00620B8F11D
:100C0000650F814606D0B8F1660F18D0B8F1670FAE
:100C100070D131E00020B9F1110F009001DB1123F8
:100C200001E009F101030AAA01A90CA8FFF7E2FEFD
:100C3000DDE90C70002609F10105834647E001203B
:100C40004B4600904FF000470AAA01A90CA8FFF7F5
:100C5000D1FEDDE90DB00C995D46002610B909F111
:100C600001000D18B9EB050003D4C0F1FF3609F1FE
:100C70000105A5EB09002BE0B9F1010F01DA4FF0F6
:100C800001090020B9F1110F0090484601DD112340
:100C900000E003460AAA01A90CA8FFF7ABFEDDE9B4
:100CA0000C704D4600268346207800070AD4AB45D9
:100CB00000DA5D4601A8012D04DD411911F8011C7F
:100CC000302907D04F4502DA17F1040F04DA01206A
:100CD00082460FE06D1EEEE7002F02DCED1B3E4466
:100CE00003E0781CA84200DD7D1CB81B00F1010A5E
:100CF0004FF000472078000703D4AA4501DB4FF0EE
:100D0000FF3A0021B7F1004F0DF143088DF8431071
:100D100024D002202B23002F01DA7F422D230A2129
:100D2000021EA0F1010000DC5FB197FBF1FC97FB14
:100D3000F1F201FB1C7C17460CF1300C08F801CDD8
:100D4000EEE7A8F1010003702188090501D54521CE
:100D500000E06521A0F1010800F8011C09980FA925
:100D6000A1EB0807FF1D00B10120411901EBEA705A
:100D7000A1693844081A401EA0612078C00602D438
:100D80002046FFF7E6FA099828B1D4E901219047F7
:100D9000206A401C20622078C00622D52046FFF73A
:100DA000D8FA1EE0002E04DBB34502DD01A8805D09
:100DB00000E03020D4E901219047206A401C2062E5
:100DC000761CAAF101005FEA000A0AD100F01CFAC1
:100DD000C0680168405CD4E901219047206A401C4A
:100DE0002062281EA5F10105DCDC07E0D4E9012121
:100DF00018F8010B9047206A401C2062381EA7F1AA
:100E00000107F3DC2046FFF7BAFA032011B041E6F0
:100E10002DE9F04F04460D46D21D22F0070089B09F
:100E2000D0E900974846394602F006F90246F80F25
:100E300001D02D2307E02068810701D52B2302E094
:100E4000202101EAC0038DF820300BB1012000E021
:100E50000020032A824601D0072A04DB29462046C7
:100E600000F0D6F93FE12078800601D40D2500E09E
:100E7000E569C7F30A560D2D49DA00214FEA175BE1
:100E800008464FF00000002F00F4400007DA00EBA6
:100E900080004FF4400100EBD07001EA6000811542
:100EA000012901DD4FF0FF3100224FEA850CBCF132
:100EB000180F06D31346ACF118004FF08052C24011
:100EC00003E04FF4801323FA0CF30CF10C0CBCF18B
:100ED000200F04D3ACF1200C09FA0CF001E007FA62
:100EE0000CF000294FF0004801DD18B90FE00ED1D9
:100EF00040450CD319EB02095F4121B9404502D1AD
:100F00009F4329EA0209BBEB175F00D0761C2088BB
:100F1000000502D57B48784402E07A4878441938C5
:100F200008AA302302F80A30037C0AF10101002EDE
:100F30000AF1020A53546A4602DC4FF0300101E024
:100F40004FF031014FF001088DF8001002D0A6F2E9
:100F5000FF3603E059EA470100D06B4E002D02DC5A
:100F60002178090704D54FF002082E218DF80110D1
:100F7000C44600210BE0C7F303433F01C35C491C97
:100F80006D1E02F80830052908F1010801DA002D6C
:100F9000F1DC00210CE000EB1973491C1B786D1E7D
:100FA000082902F808304FEA091908F1010801DAA6
:100FB000002DF0DC21688B0602D516E0A8F10108AF
:100FC000E04505DD02EB080313F8013C302BF5D0BA
:100FD000B8F1000F09DD02EB080313F8013C2E2BDA
:100FE00003D1090701D4A8F10108002D05DD3E2138
:100FF00002F808106D1E08F10108407C002E02F86E
:10100000080008F1010804DA2D20764202F80800F1
:1010100002E02B2002F808000A214FF47A70864281
:1010200008F101080BDB96FBF0F3303302F80830CF
:1010300096FBF0F308F1010800FB136601E0642E53
:101040000CDB642096FBF0F3303302F8083096FB9B
:10105000F0F308F1010800FB136601E00A2E06DB3D
:1010600096FBF1F0303002F8080008F1010896FB19
:10107000F1F001FB1060303002F80800A16908F1BE
:10108000010808EB050202EB0A00081AA0612078AB
:10109000C00602D42046FFF75CF9216A08AE01EBD6
:1010A0000A00206204E0D4E9012116F8010B904700
:1010B000BAF1010AF7D22078C00602D52046FFF720
:1010C00048F96E4609E016F8010B3E280FD0D4E926
:1010D00001219047206A401C2062B8F10108F2D239
:1010E0002046FFF74CF909B00320BDE8F08F206AD5
:1010F0002844206203E0D4E90121302090476D1E8E
:10110000EBD3F8E72E22000002FCFFFF10B5436985
:1011100013B1AFF3008001E0FFF754F9012010BDD7
:10112000127800F124010A7000224A700122EDE7D2
:1011300011684FF0FF32E9E710B5436913B1AFF31F
:10114000008001E0FFF7D6F9012010BD128800F100
:10115000240182840022C2840122EDE711684FF04D
:10116000FF32E9E72DE9F04116460C46054600F04E
:1011700043F8036893F80101012807D0FF2C12D827
:10118000185D80B101202C70BDE8F081D3F8070113
:101190003246214603F20713C7182846BC46BDE86D
:1011A000F041002360474FF0FF30EDE7754600F057
:1011B000EBF8AE4605006946534620F00700854629
:1011C00018B020B5FFF79AF8BDE820404FF00006B0
:1011D0004FF000074FF000084FF0000BAC46ACE8B2
:1011E000C009ACE8C009ACE8C009ACE8C00921F00E
:1011F00007018D467047000010B500F005F8001D8E
:1012000010BD00BFA11E000000487047480000202C
:101210002DE9F0411F46044603260168072A01F420
:10122000006004DB08B116A505E016A503E008B1CF
:1012300015A500E015A521F010002060A069C01ED2
:10124000A0610FB1401EA0612046FFF782F84FB1A8
:10125000D4E9012138469047206A401C2062C01C16
:10126000206206E0206AFAE7D4E9012115F8010BB3
:101270009047761EF8D22046FFF781F8BDE8F0814E
:101280004E414E006E616E00494E4600696E66002A
:101290002DE9F047814616468AB0354878440DC896
:1012A0008DE80D0032487844801C03AC0DC884E8FA
:1012B0000D0041F69B300844372190FBF1F290FB82
:1012C000F1F5A5F1800501FB12041B3C02D5644237
:1012D000012000E00020DFF898A080460027FA44B3
:1012E000AAF1BE0A0EE0E0070AD03246684607EBD4
:1012F000470101230AEB810101F067FD8DE807003A
:1013000064107F1C002CEED1194F7F44AE3F19E0D2
:10131000E80715D007EB04100DF1180A90E80E004D
:101320008AE80E00C068F04201D198190890324650
:10133000012306A903A801F048FD03AB83E80700D9
:101340006D10641C002DE3D14FF001033246694655
:10135000B8F1000F03A802D001F022FD01E001F076
:1013600034FDC9E90001C9F808200AB0BDE8F087DA
:10137000381F000010B50446AFF300802046BDE8DA
:101380001040FEF7A6BF000000487047280000206C
:1013900030B44FF0013C50F8042B51F8043BCCFA28
:1013A00052F4D51A20D1FCB950F8042B51F8043B63
:1013B000CCFA52F4D51A17D1B4B950F8042B51F81D
:1013C000043BCCFA52F4D51A0ED16CB950F8042B68
:1013D00051F8043BCCFA52F4D51A05D1002CDAD0DE
:1013E00030BC4FF00000704729BAB1FA81F111F01A
:1013F0001801D1F120008440F2D1CA40CB4012F054
:10140000FF0213F0FF0330BCD01A704701491820C7
:10141000ABBEFEE7260002007047000080B584B036
:10142000039000F0E7F902900398019001980130D1
:1014300048B1FFE740F20400C2F2000001780198D1
:1014400008440190FFE7FFE700F0D4F90299401A41
:101450000199884201D2FFE7F6E704B080BD0000A1
:101460008BB00A9009910020079006900590089093
:10147000FFE708980F2800F2A281FFE708990120F2
:1014800088400790099800680799084006900698D8
:101490000799884240F08E81FFE70998406800F084
:1014A0000300012807D0FFE70998406800F0030017
:1014B00002282FD1FFE70A9880680590089841001C
:1014C000032000FA01F10598884305900998C06847
:1014D0000899490000FA01F105980843059005981C
:1014E0000A9988600A98406805900899012000FAD6
:1014F00001F105988843059009984068C0F30010F1
:10150000089900FA01F105980843059005980A9991
:101510004860FFE70998406800F00300032818D0EE
:10152000FFE70A98C068059008984100032000FA78
:1015300001F1059888430590099880680899490049
:1015400000FA01F105980843059005980A99C860CA
:10155000FFE70998406800F00300022826D1FFE762
:101560000A9808996FF0030202EA51010844006AE0
:101570000590089800F0070081000F2000FA01F1A3
:1015800005988843059009980069089901F00701BA
:10159000890000FA01F105980843059005980A9919
:1015A000089B02EA530211440862FFE70A980068A8
:1015B000059008984100032000FA01F1059888433E
:1015C00005900998406800F003000899490000FA66
:1015D00001F105980843059005980A990860099853
:1015E00080798007002800F0E480FFE7FFE7002013
:1015F000049043F64400C4F20200016841F48041C3
:101600000160006800F4804004900498FFE70898A7
:1016100020F0030043F60801C4F201014058059090
:10162000089800F0030081000F2000FA01F10598EE
:10163000884305900A980021C4F20201884203D130
:10164000FFE70020039034E00A9840F20041C4F222
:101650000201884203D1FFE70120029026E00A98A8
:1016600040F60001C4F20201884203D1FFE70220E4
:10167000019018E00A9840F60041C4F20201884245
:1016800003D1FFE7032000900AE00A9941F200022B
:10169000C4F202020720914208BF04200090FFE735
:1016A00000980190FFE701980290FFE702980390ED
:1016B000FFE70398C0B2089901F00301890000FA1E
:1016C00001F10598084305900598089921F0030158
:1016D00043F60802C4F20102885043F60840C4F2FF
:1016E00001000068059006990598884305900998BF
:1016F0008079C006002805D5FFE7069905980843BC
:101700000590FFE7059843F60841C4F2010108601F
:1017100043F60C40C4F20100006805900699059854
:1017200088430590099880798006002805D5FFE751
:101730000699059808430590FFE7059843F60C4184
:10174000C4F20101086043F60440C4F201000068DD
:101750000590069905988843059009988079800737
:10176000002805D5FFE70699059808430590FFE78F
:10177000059843F60441C4F20101086043F60040B5
:10178000C4F2010000680590069905988843059009
:1017900009988079C00728B1FFE7069905980843A2
:1017A0000590FFE7059843F60041C4F20101086087
:1017B000FFE7FFE7FFE708980130089059E60BB014
:1017C0007047000082B00190ADF802108DF8012042
:1017D0009DF8010028B1FFE7BDF80200019988617A
:1017E00005E0BDF80200000401998861FFE702B03E
:1017F0007047000040F29000C2F20000006870479D
:1018000040F20400C2F20000027840F29001C2F2FD
:1018100000010868104408607047000080B543F676
:101820000041C4F20201086840F4007008600868D2
:1018300040F480600860032000F05CF80F2000F0A6
:1018400005F800F03BF8002080BD000080B582B0B4
:10185000009040F20000C2F20000006840F2040173
:10186000C2F200010A784FF47A71B1FBF2F1B0FBD9
:10187000F1F000F047F820B1FFE701208DF80700F4
:1018800018E000980F280DD8FFE700994FF0FF30BF
:10189000002200F015F8009840F20801C2F20001A1
:1018A000086003E001208DF8070003E000208DF8B8
:1018B0000700FFE79DF8070002B080BD70470000F9
:1018C00080B586B08DF81700049103920020029035
:1018D00000F006FC02909DF917000190029804990F
:1018E000039A00F0CFFA0146019800F001FC06B01F
:1018F00080BD000080B582B00190019800F01AFC14
:1019000002B080BD80B582B00190019800F018FB54
:1019100002B080BD43F64401C4F20201086840F4FD
:10192000807008600021C4F20201086840F00C00D9
:10193000086042F23401C4F201010120086042F261
:101940002C01C4F201010020086042F20801C4F237
:101950000101086840F001000860704780B58AB056
:101960000120009005900690002001900790022031
:101970000290089040F60000C4F20200039005A90E
:101980000491FFF76DFDDDF800C0019B029A0398FA
:1019900004990592CDF818C007930892FFF760FDEF
:1019A000DDF800C0019B029A039804994FF0040EE1
:1019B000CDF814E0CDF818C007930892FFF750FD5A
:1019C000019B029A039804994FF0080CCDF814C0BB
:1019D000069307920892FFF743FD019B029A039832
:1019E00004994FF0100CCDF814C00693079208929A
:1019F000FFF736FD019B029A039804994FF0200CE3
:101A0000CDF814C0069307920892FFF729FD019BB9
:101A1000029A039804994FF0400CCDF814C0069335
:101A200007920892FFF71CFD019B029A0398049904
:101A30004FF4807CCDF814C0069307920892FFF70C
:101A40000FFD0AB080BD000043F64401C4F202015C
:101A5000086840F4805008600021C4F20201086860
:101A600040F4094008602021C4F202010868002205
:101A7000C5F25002104308600821C4F20201086850
:101A800040F40F4008601421C4F20201086840F0DD
:101A90001000086043F20001C4F2010140F61D305D
:101AA0000860086840F040000860704780B5012079
:101AB00000F004F8052000F0A5F880BD80B582B0E4
:101AC0008DF807000020C4F202004FF400710022DC
:101AD000FFF778FE9DF80700000900F009F89DF86F
:101AE000070000F00F0000F003F802B080BD000016
:101AF00080B586B08DF817009DF8170000F0080239
:101B00000020C4F202004FF48071FFF75BFE9DF8E5
:101B1000170000F0040240F20040C4F202000190FD
:101B20004FF48061FFF74EFE01989DF8171001F009
:101B300002021021FFF746FE01989DF8171001F0F0
:101B400001022021FFF73EFE40F60000C4F2020031
:101B50000290802103910122FFF734FE322004908D
:101B600000F05AF8029803990022FFF72BFE049820
:101B700000F052F806B080BD80B582B08DF8070045
:101B80008DF8061044F20000C5F2144000909DF854
:101B90000600022804DBFFE700208DF80600FFE7BF
:101BA0009DF8070040F28801C2F20001C8709DF85C
:101BB000060008719DF807009DF806206946895CBB
:101BC000084440F08000C0B2FFF778FF02B080BD4B
:101BD00080B582B08DF807000020C4F202004FF4F7
:101BE00000710122FFF7EEFD9DF807000009FFF7E5
:101BF0007FFF9DF8070000F00F00FFF779FF02B0AC
:101C000080BD000080B582B08DF807009DF8070008
:101C1000FFF704FC02B080BD80B584B0ADF80E00C3
:101C20004EF21400CEF200000068013044F6D351A9
:101C3000C1F26201A0FB011080090290FFF7DAFDFA
:101C40004FF47A7148434EF21801CEF20001096850
:101C5000029AB1FBF2F1401A00F57A700190FFE7A9
:101C6000FFF7C8FD4FF47A7148434EF21801CEF2E7
:101C700000010968029AB1FBF2F1401A0199401A79
:101C800000F57A70BDF80E10884201D2FFE7E7E751
:101C900004B080BD80B540F28800C2F20000017837
:101CA00041F004010170007840F00800FFF706FFE2
:101CB00080BD000080B58CB00120089002200A9001
:101CC000002009904FF4007007900020C4F2020039
:101CD000059007A90691FFF7C3FB0699802007909E
:101CE00040F60000C4F20200FFF7BAFB059806991F
:101CF00008220792FFF7B4FB06992020079040F2D4
:101D00000040C4F202000490FFF7AAFB0498069971
:101D100010220792FFF7A4FB049806994FF4806203
:101D20000792FFF79DFB059806994FF48072079282
:101D3000FFF796FBFFE7FFF75DFDC72804D8FFE735
:101D40000120FFF75FFFF6E740F28801C2F20001D1
:101D500002910020C87008714870487840F008006F
:101D6000487003200090FFF7C3FE05200390FFF7A3
:101D700049FF0098FFF7BCFE0398FFF743FF009868
:101D8000FFF7B6FE0398FFF73DFF02200190FFF733
:101D9000AFFE0398FFF736FF0298407840F020002E
:101DA000FFF78CFE029904200870FFF773FFFFF71E
:101DB0007DFE019902988170807840F00400FFF761
:101DC0007DFE0398FFF71EFF0CB080BD80B582B08A
:101DD0008DF807008DF8061000929DF807009DF819
:101DE0000610FFF7C9FEFFE700980078002846D0EC
:101DF000FFE740F28800C2F20000C07810280EDB36
:101E0000FFE740F28801C2F200010020C8700879A3
:101E100001300871C8780979FFF7AEFEFFE7009836
:101E200000780A280CD1FFE740F28801C2F20001D5
:101E3000087901300871C8780979FFF79DFE1AE02A
:101E4000009800780D2809D1FFE740F28800C2F21F
:101E5000000001790020FFF78FFE0BE0009800786A
:101E6000FFF7B6FE40F28801C2F20001C8780130E7
:101E7000C870FFE7FFE7009801300090B4E702B0B8
:101E800080BD000088B0079006910592079800F089
:101E9000070004900498C0F10700052803D3FFE76A
:101EA0000420019004E00498C0F107000190FFE7CE
:101EB0000198039004980430062803D8FFE7002017
:101EC000009003E0049803380090FFE70098029028
:101ED00006980399012202FA01F101390840029B98
:101EE000984005999A40013A1140084308B070475C
:101EF00081B042F20001C4F201010020086042F208
:101F00000801C4F20101086840F080400860FFE762
:101F100042F20000C4F2010000688007002801D4EA
:101F2000FFE7F5E742F24C00C4F2010000686FF3EE
:101F30001F30ADF80200BDF8020001B0704700008C
:101F400080B582B0009000980138B0F1807F03D353
:101F5000FFE70120019019E0009801384EF21401CA
:101F6000CEF2000108604FF0FF300F2100F0C0F802
:101F70004EF21801CEF20001002008604EF210026D
:101F8000CEF20002072111600190FFE7019802B034
:101F900080BD000080B5FFF733FC80BD86B0002116
:101FA00005910491022003900291019043F60800EC
:101FB000C4F20200006800F00C0005900598009043
:101FC00040B1FFE7009804280ED0FFE700980828EA
:101FD00014D059E040F20001C2F2000142F2004088
:101FE000C0F2F400086059E040F20001C2F20001C2
:101FF00047F64000C0F27D1008604FE043F6040051
:10200000C4F202000168C1F380510291006800F03F
:102010003F000190029888B1FFE7019947F6400020
:10202000C0F27D10B0FBF1F043F60401C4F20201EE
:102030000968C1F388114843049010E0019942F205
:102040000040C0F2F400B0FBF1F043F60401C4F22A
:1020500002010968C1F3881148430490FFE743F681
:102060000400C4F20200006800F44031022000EBDA
:10207000D130039004980399B0FBF1F040F20001D5
:10208000C2F20001086009E040F20001C2F2000162
:1020900042F20040C0F2F4000860FFE743F6080097
:1020A000C4F202000068C0B2010943F2F010C0F6A9
:1020B0000000405C0590059A40F20001C2F2000168
:1020C0000868D040086006B0704700004EF688519E
:1020D000CEF20001086840F470000860704700000C
:1020E0004EF60C50CEF200000068C0F3022070479C
:1020F00082B08DF8070000919DF9070000280AD4EE
:10210000FFE7009800019DF907104EF20042CEF261
:10211000000288540BE0009800019DF8071001F0C0
:102120000F014EF61452CEF200028854FFE702B0BF
:102130007047000083B00290029800F00700009002
:102140004EF60C51CEF200010868019001984FF64E
:10215000FF02104001900198009A40EA02200022FC
:10216000C0F2FA52104301900198086003B0704722
:1021700083B00290019100200090FFE7029800993F
:10218000405C20B1FFE7009801300090F6E7FFE7E0
:10219000009801990139884207DAFFE70299009A0D
:1021A000501C009020208854F2E703B070470000D4
:1021B00080B5A4B015A81290002023908DF88B0054
:1021C000FFF7ECFEFFF72AFBFFE70020219043F624
:1021D0003000C4F20200016841F0010101600068B2
:1021E00000F0010021902198FFE7FFE700202090F8
:1021F00043F63000C4F20200016841F002010160C0
:10220000006800F0020020902098FFE7FFE7002020
:102210001F9043F63000C4F20200016841F004014F
:102220000160006800F004001F901F98FFE7FFF7AF
:1022300041FDFFF793FBFFF76DFBFFF705FC43F252
:102240001A22C0F60002002111910846FFF7BEFDD8
:1022500011981E901D901C901B904FF07E511A916A
:102260000021C4F27A41199118900021C4F2FA3188
:10227000179144F20001C4F21C61169115901E9052
:10228000FFE71E9844F24021C0F20F01884205DCAE
:10229000FFE7FFE71E9801301E90F2E7FFF706FC0C
:1022A00043F24922C0F60002002110910846FFF7D0
:1022B0008DFD10981E90FFE71E9844F24021C0F259
:1022C0000F01884205DCFFE7FFE71E9801301E90F2
:1022D000F2E7FFF7EBFB43F27422C0F600020021A5
:1022E0000F910846FFF772FD0F981E90FFE71E98AA
:1022F000B0F5967F30DCFFE71E98622809DCFFE727
:1023000043F24722C0F6000200200121FFF75EFDE4
:10231000FFE71E9863280DDBFFE71E98C52809DC40
:10232000FFE743F24522C0F6000200200121FFF73B
:102330004DFDFFE71E98C62809DBFFE743F2432265
:10234000C0F6000200200121FFF740FDFFE7FFE794
:102350001E9801301E90CAE7FFF7A8FBFFE79DF823
:102360008B0001460E91032800F2AD810E99DFE843
:1023700011F004005B00D100470100201E90FFE730
:102380001E9848F2A061C0F20101884205DCFFE717
:10239000FFE71E9801301E90F2E743F26622C0F676
:1023A000000200210D910846FFF710FD0D9843F241
:1023B0008522C0F600020121FFF708FDFFE700F0CB
:1023C00085F91C90FFE71C9801300028F7D0FFE743
:1023D0001C98012804DBFFE71C9807281EDBFFE799
:1023E000FFF764FB43F25522C0F6000200210C9176
:1023F0000846FFF7EBFC0C981E90FFE71E9848F28A
:102400008041C0F21E01884205DCFFE7FFE71E980D
:1024100001301E90F2E7FFF749FB54E101208DF8EF
:102420008B00FFF743FB4EE100201E90FFE71E9854
:1024300048F2A061C0F20101884205DCFFE7FFE736
:102440001E9801301E90F2E743F23222C0F60002DD
:10245000002109910846FFF7B9FC09981C9A40F23F
:102460000C01C2F2000101EB820201210A91FFF787
:10247000ADFCFFF73DFD014612981B9190ED060A59
:10248000B8EEC00AB1EE042A20EE020A9FED8E1AC1
:1024900080EE010A80ED000A90ED000A90ED043A0A
:1024A00090ED051A33EE413A20EE030A80EE020A5F
:1024B00030EE010ABDEEC00A80ED060A1B9A43F217
:1024C0005221C0F600010DF14E000B90FDF728FFE0
:1024D0000B980621FFF74CFE0A990B9A0520FFF78F
:1024E00075FC00F0F3F81D901D98232806D1FFE736
:1024F00002208DF88B00FFF7D9FA0AE01D982A28F0
:1025000006D1FFE700208DF88B00FFF7CFFAFFE739
:10251000FFE7D8E000201E90FFE71E9848F2A06178
:10252000C0F20101884205DCFFE7FFE71E98013099
:102530001E90F2E743F22122C0F60002002106912C
:102540000846FFF743FC06981C9A40F20C01C2F2C1
:10255000000101EB820201210791FFF737FCFFF731
:10256000C7FC01461298189190ED030AB8EEC00A14
:10257000B1EE042A20EE020A9FED531A80EE010A02
:1025800080ED000A90ED000A90ED013A90ED021AFC
:1025900033EE413A20EE030A80EE020A30EE010AE1
:1025A000BDEEC00A80ED030A189A43F25221C0F62C
:1025B00000010DF14E000890FDF7B2FE08980621CB
:1025C000FFF7D6FD0799089A0520FFF7FFFB00F0FB
:1025D0007DF81D901D98232806D1FFE703208DF874
:1025E0008B00FFF763FA0AE01D982A2806D1FFE75F
:1025F00001208DF88B00FFF759FAFFE7FFE762E053
:10260000BDF87000BDF86C10BDF8602000F0E8F86F
:1026100043F20022C0F60002002102910846FFF7B3
:10262000D5FB02991C9A40F20C00C2F2000000EBAC
:1026300082020C20FFF7CAFB1B9A43F25221C0F61C
:10264000000103910DF14E000590FDF769FE059A1A
:10265000029801210491FFF7B9FB03990598189A94
:10266000FDF75EFE0499059A0820FFF7AFFBFFE730
:1026700040F61000C4F202000068C005002801D432
:10268000FFE7F5E7FFF712FA43F20C22C0F600026B
:10269000002101910846FFF799FB01981E90FFE782
:1026A0001E9848F28041C0F21E01884205DCFFE717
:1026B000FFE71E9801301E90F2E7FFF7F7F90020C0
:1026C0008DF88B00FFE74AE600F07F4585B040F6C5
:1026D0001401C4F202010120086040F61000C4F2A7
:1026E00002000068C0F3C30003900398D0B1FFE775
:1026F0000398013801460291072812D80299DFE8B1
:1027000001F00407100A1010100D0120049063E07E
:102710000420049060E0072004905DE02A200490EB
:102720005AE0FFE740F61401C4F2020102200860FB
:1027300040F61000C4F202000068C0F3C30003902A
:102740000398D0B1FFE703980138014601910728AB
:1027500012D80199DFE801F00407100A1010100DDB
:102760000220049038E00520049035E00820049011
:1027700032E0002004902FE0FFE740F61401C4F29D
:1027800002010420086040F61000C4F20200006854
:10279000C0F3C30003900398D0B1FFE7039801385A
:1027A00001460091072812D80099DFE801F00407DC
:1027B000100A1010100D032004900DE00620049064
:1027C0000AE00920049007E02320049004E0FFE7DA
:1027D0004FF0FF300490FFE7049805B07047000009
:1027E00082B0ADF80600ADF80410ADF80220142157
:1027F000C4F20201086820F010000860FFE743F20D
:102800000800C4F2010000688007002801D4FFE737
:10281000F5E7BDF8060043F20C01C4F201010860BF
:10282000FFE743F20800C4F20100006880070028B7
:1028300001D4FFE7F5E7BDF8040043F20C01C4F250
:1028400001010860FFE743F20800C4F201000068DC
:102850008007002801D4FFE7F5E7BDF8020043F246
:102860000C01C4F201010860FFE743F20800C4F262
:10287000010000688007002801D4FFE7F5E7FFE7C3
:1028800043F20800C4F2010000680006002801D5E8
:10289000FFE7F5E71421C4F20201086840F01000D8
:1028A000086002B070475FEA400C08BF91F0000F6B
:1028B0004FEA8C234FEAC12243EA51514FEA1C50A0
:1028C00018BF00F5F0404FEA300018BF41F000415A
:1028D0005FEA6C5C00F02980BCF1FF3F08BF40F06C
:1028E00080407047130C06BF12044FF0100C4FF0DD
:1028F000000C130E04BF12020CF1080C130F04BFDE
:1029000012010CF1040C930F04BF92000CF1020CA5
:10291000D30F04BF52000CF1010C11464FF000021E
:10292000A0F11F00A0EB0C00704711F0004F08BF92
:10293000704731F000413FF4D5AF0B0C06BF0904DE
:102940004FF0100C4FF0000C0B0E04BF09020CF1FD
:10295000080C0B0F04BF09010CF1040C8B0F04BF12
:1029600089000CF1020CCB0F04BF49000CF1010CE3
:10297000CCF1200322FA03F341EA030102FA0CF23C
:10298000A0EB0C0000F101007047000023F07F472E
:1029900020F07F4C80EA030000F00040ACEB07031E
:1029A00003F57C5303F1FF032DE9804909B44FEA95
:1029B000144324EA03484FEA154B25EA0B4E0FF265
:1029C000042606EB13273E7803FB0667C7F50007CE
:1029D00007FB06F64FEAD64606F102064FEA5437E1
:1029E00007FB066CCCF1005C4FEA1C472CEA074C55
:1029F0000CFB06F507FB06F404EB15464FEA9616AA
:102A000049085FEA320234BF00204FF000404FEA2D
:102A1000D13706FB07FC4FEA1C4C0CFB0BF7D21B13
:102A200003FB0CF761EB07010CFB0EF7B0EB074063
:102A300072EB17420CFB08F734BFA2EB0742B2EB74
:102A4000074261EB17414FEA0C444FEA910706FB3E
:102A500007FC4FEA1C4C0CFB0BF7B0EBC74072EBCA
:102A6000573203FB0CF734BFA2EBC742B2EBC742AD
:102A700061EB57310CFB0EF7B0EBC70072EB5772EE
:102A80000CFB08F734BFA2EBC702B2EBC70261EB45
:102A900057714FEA816141EA92114FEA826242EA3C
:102AA00090124FEA806004EBCC04039F4FEAD137C9
:102AB00006FB07FC4FEA1C4C0CFB0BF7D21B03FB7D
:102AC0000CF761EB07010CFB0EF7B0EB074072EB64
:102AD00017420CFB08F734BFA2EB0742B2EB0742E8
:102AE00061EB17414FEA8C5504EB9C244FEA9107A8
:102AF00006FB07FC4FEA1C4C0CFB0BF7B0EBC74086
:102B000072EB573203FB0CF734BFA2EBC742B2EBB8
:102B1000C74261EB57310CFB0EF7B0EBC70072EB0D
:102B200057720CFB08F734BFA2EBC702B2EBC70227
:102B300061EB57714FEA816141EA92114FEA82627B
:102B400042EA90124FEA806015EB4C2544F10004F4
:102B50004FEAD13706FB07FC4FEA1C4C0CFB0BF786
:102B6000D21B03FB0CF761EB07010CFB0EF7B0EB7C
:102B7000074072EB17420CFB08F734BFA2EB074289
:102B8000B2EB074261EB17414FEA813141EA9241D2
:102B90004FEA823242EA90424FEA80304FEA0C76A6
:102BA00015EB1C1544F1000448EA03434EEA0B48B8
:102BB0004FF0000EB2EB080C71EB030724BF624626
:102BC00039464EEB0E0E4FF0000B001852414941B2
:102BD0004BEB0B0BB2EB080C71EB03077BF1000B1B
:102BE00024BF624639464EEB0E0E4FF0000B001824
:102BF000524149414BEB0B0BB2EB080C71EB030755
:102C00007BF1000B24BF624639464EEB0E0E51EAB3
:102C1000020718BF46F0010616EB0E7655F10002CA
:102C200054F1000103D5BDE88901BDE80088BDE885
:102C30008901BDE80048B619524141EB0101A3F1F9
:102C40000103704780807F7E7D7C7B7A7978777600
:102C500076757473727171706F6E6E6D6C6C6B6A79
:102C60006A69686867666665646463636261616017
:102C7000605F5F5E5E5D5D5C5C5B5B5A5A59595894
:102C800058575756565555555454535352525251FE
:102C9000515050504F4F4F4E4E4D4D4D4C4C4C4B54
:102CA0004B4B4A4A4A49494948484847474747469B
:102CB00046464545454444444443434343424242D7
:102CC000424141419C46002B30D477002BD04FEA43
:102CD00037071CB503B44FF010004FF01001BAF1E4
:102CE000000F06D0BCF1000FDCBF40F0080040F040
:102CF00008014FF000000FBCBDE810400BF1010BC4
:102D0000BBF1010F08BF5FEA170722BF12F10102F2
:102D100011F101014FF0004143F1000300F00040C8
:102D200043EA00007047F9D35708D0E746EA064661
:102D30004FEA164613F1400F1FDD13F1200FDFBFDE
:102D400016430A46002120335B42BED0C3F1200760
:102D500046EA06464FEA164602FA07F746EA07062B
:102D600022FA03F2C3F1200701FA07F742EA070249
:102D700021FA03F14FF00003A7E746EA020646EA0C
:102D800006464FEA164646EA0106BCBF46EA064634
:102D9000360C4FF000034FF000024FF0000194E7B3
:102DA0002DE9804C70B49A46934691E8380007C8E4
:102DB00031EA400C48BF34EA430C03D5FFF7E6FD87
:102DC000FFF780FFF0BCBDE8008C2DE9804C70B4AB
:102DD0009A46934691E8380007C810F0804F08BF24
:102DE00013F0804F03D100F005F8FFF76BFFF0BC44
:102DF000BDE8008C20F07F4723F07F4C80EA030081
:102E000000F0004007EB0C03A3F57C53A3F1FE0395
:102E100092F0000F00F0B38095F0000F00F0778083
:102E20002DE901494FEA114021EA00484FEA1446D2
:102E300024EA064700FB06FC08FB06F607FB08F839
:102E400018EB06484CEB164C00FB07F718EB07484D
:102E50004CEB17404FEA124B22EA0B4E4FEA154655
:102E600025EA06470BFB06FC0EFB06F607FB0EFEEB
:102E70001EEB064E4CEB164C0BFB07F71EEB074EFA
:102E80004CEB174B18EB0B0840F1000018EB0E0B46
:102E900058EB000840F100008F1A4FF000014FF08E
:102EA00000063CBFC943661B14BFB5EB040C0021F0
:102EB0003CBFC943F61B4FEA174427EA04454FEAD3
:102EC0001C472CEA074C04FB076205FB07F70CFBC9
:102ED00005F616EB074642EB174204FB0CFC16EB1B
:102EE0000C4642EB1C421BEB060658EB020241412A
:102EF0004EEA8E0E46EA9E0601D5BDE80189B61956
:102F0000524141EB0101A3F10103BDE801894FEA00
:102F1000144524EA05464FEA114721EA074C05FB10
:102F200007F406FB07F70CFB06F111EB074144EB36
:102F3000174405FB0CFC11EB0C4144EB1C444FEA1D
:102F4000124722EA074C05FB07F206FB07F70CFBCA
:102F500006F616EB074642EB174205FB0CFC16EB98
:102F60000C4642EB1C456A1854F1000148BF7047FB
:102F7000B619524141EB0101A3F10103704795F0ED
:102F8000000F37D04FEA114221EA02464FEA1447B8
:102F900024EA074C02FB07F106FB07F70CFB06F4DB
:102FA00014EB074441EB174102FB0CFC14EB0C44FF
:102FB00041EB1C414FEA154725EA074C02FB07F598
:102FC00006FB07F70CFB06F616EB074645EB174525
:102FD00002FB0CFC16EB0C4645EB1C42121951F19E
:102FE000000148BF7047B619524141EB0101A3F1FE
:102FF000010370474FEA144524EA05464FEA11479A
:1030000021EA074C05FB07F106FB07F70CFB06F26C
:1030100012EB074241EB174105FB0CFC12EB0C4293
:1030200051EB1C414FF0000648BF7047921841EB2E
:103030000101A3F10103704703B401984100009816
:1030400050EAC12018BF04204A0D18BF40F001000B
:1030500040F2FF72B2EB515F08BF40F0020001285E
:1030600008BF052002B0704730380A2801D201207D
:10307000704700207047000010B500290AD008787A
:10308000002807D005487844FEF782F9002801D0CF
:10309000002010BD0248784410BD00002A02000044
:1030A0002202000010B500290AD00878002807D0B5
:1030B00005487844FEF76CF9002801D0002010BDC7
:1030C0000248784410BD00001A02000012020000FD
:1030D000F1EE100A4FF6FF71C0F2C03120EA010094
:1030E00040F04070E1EE100A7047FDF75BBDFDF760
:1030F0008FBE0000000000000000000030313233BD
:10310000343536373839414243444546403058001B
:10311000303132333435363738396162636465664D
:1031200040307800040000080000000000000002A9
:103130000001000010303132333435363738396110
:103140006263646566787000303132333435363707
:10315000383941424344454658500000024000007F
:10316000000000A00000000005400000000000C8B2
:10317000000000000C4000000000409C0000000027
:10318000194000000020BCBE0000000034400000D8
:10319000BFC91B8E00000004B5400000504BCFD0CB
:1031A0006607E2CF010000006C4100003E8251AA98
:1031B000DFEEA73401000000D9420000DCB5A0E238
:1031C0003A301F97FFFFFFFFB4450000FD25A0C860
:1031D000E9A3C14FFFFFFFFFFF3F00000000008099
:1031E00000000000FF3F0000000000800000000021
:1031F00000000000000000000102030406070809A7
:10320000446174612073656E743A2000776F726B4D
:1032100020697320646F6E65210048656C6C6F21B6
:103220000054202028233D6F6B2C2A3D6261636B84
:10323000290046727128233D6F6B2C2A3D62616321
:103240006B290031003200330039393234333034E5
:1032500037002564006E6F7420612076616C6964AC
:1032600020776176650043686F6F736520736967C7
:103270006E616C0043686F6F7365207369676E6180
:103280006C20696E00456E746572206B6579000074
:10329000E03300080000002028000000D0010008F2
:1032A000083400082800002070060000EC01000827
:1032B0001C00000043000000F8FFFFFF0C000000AE
:1032C0000E0000000F0000002E00000010010000A2
:1032D00043000000F8FFFFFF0040404040404040F6
:1032E00040404141414141404040404040404040D9
:1032F000404040404040404040050202020202027D
:1033000002020202020202020220202020202020CB
:1033100020202002020202020202909090909090DF
:10332000101010101010101010101010101010109D
:103330001010101002020202020288888888888811
:1033400008080808080808080808080808080808FD
:103350000808080802020202400000000000000005
:10336000000000000000000000000000000000005D
:10337000000000000000000000000000000000004D
:10338000000000000000000000000000000000003D
:10339000000000000000000000000000000000002D
:1033A000000000000000000000000000000000001D
:1033B000000000000000000000000000000000000D
:1033C00000000000000000000000000000000000FD
:1033D00000000000000000000000000000000000ED
:1033E0000024F400010000001000000000000000B4
:1033F00073696E00737175007472690061736E0099
:08340000737470007361770022
:040000050800019559
:00000001FF
