:020000040800F2
:10000000B80C0020750200087D0200087F0200087D
:100010008102000883020008850200080000000039
:10002000000000000000000000000000870200083F
:1000300089020008000000008B0200080506000885
:100040008F0200088F0200088F0200088F0200084C
:100050008F0200088F0200088F0200088F0200083C
:100060008F0200088F0200088F0200088F0200082C
:100070008F0200088F0200088F0200088F0200081C
:100080008F0200088F0200088F02000800000000A5
:100090000000000000000000000000008F020008C7
:1000A0008F0200088F0200088F0200088F020008EC
:1000B0008F0200088F0200088F0200088F020008DC
:1000C0008F0200088F0200088F0200088F020008CC
:1000D0008F0200088F0200088F0200080000000055
:1000E0008F0200088F0200088F0200080000000045
:1000F0000000000000000000000000008F02000867
:10010000000000008F0200088F0200088F02000824
:1001100000000000000000000000000000000000DF
:100120008F0200088F0200088F0200088F0200086B
:100130008F02000800000000000000000000000026
:100140000000000000000000000000008F02000816
:100150008F0200088F0200088F0200088F0200083B
:100160008F0200088F02000800000000000000005D
:10017000000000000000000000000000000000007F
:10018000000000008F0200080000000000000000D6
:100190008F02000800F002F800F05CF80AA090E876
:1001A000000C82448344AAF10107DA4501D100F032
:1001B00051F8AFF2090EBAE80F0013F0010F18BFA3
:1001C000FB1A43F00103184750130000701300009E
:1001D0000A444FF0000C10F8013B13F0070408BF6D
:1001E00010F8014B1D1108BF10F8015B641E05D00B
:1001F00010F8016B641E01F8016BF9D113F0080FC0
:100200001EBF10F8014BAD1C0C1B09D16D1E58BF51
:1002100001F801CBFAD505E014F8016B01F8016B88
:100220006D1EF9D59142D6D37047000000230024FB
:1002300000250026103A28BF78C1FBD8520728BFF6
:1002400030C148BF0B6070471FB501F04FF91FBDAB
:1002500010B510BD00F031F81146FFF7F5FF00F0C2
:10026000EBFA00F04FF803B4FFF7F2FF03BC00F025
:1002700057F800000948804709480047FEE7FEE7B5
:10028000FEE7FEE7FEE7FEE7FEE7FEE7FEE7FEE746
:1002900004480549054A064B704700003D07000821
:1002A00095010008B8060020B80C0020B80800200E
:1002B000B8080020704770477047754600F02CF86A
:1002C000AE4605006946534620F00700854618B043
:1002D00020B5FFF7DDFFBDE820404FF000064FF0EE
:1002E00000074FF000084FF0000BAC46ACE8C00927
:1002F000ACE8C009ACE8C009ACE8C00921F00701CE
:100300008D46704710B50446AFF300802046BDE827
:100310001040FFF7A8BF00000048704750060020BB
:1003200001491820ABBEFEE726000200704700001E
:1003300040F24860C2F20000027840F2B061C2F2BE
:1003400000010868104408607047000080B543F65B
:100350000041C4F20201086840F4007008600868B7
:1003600040F480600860032000F05CF80F2000F08B
:1003700005F800F03BF8002080BD000080B582B099
:10038000009040F20000C2F20000006840F24861B4
:10039000C2F200010A784FF47A71B1FBF2F1B0FBBE
:1003A000F1F000F047F820B1FFE701208DF80700D9
:1003B00018E000980F280DD8FFE700994FF0FF30A4
:1003C000002200F015F8009840F24C61C2F20001E2
:1003D000086003E001208DF8070003E000208DF89D
:1003E0000700FFE79DF8070002B080BD70470000DE
:1003F00080B586B08DF8170004910392002002901A
:1004000000F0A6F902909DF9170001900298049956
:10041000039A00F097F80146019800F0A1F906B0A0
:1004200080BD000080B582B00190019800F0BAF95B
:1004300002B080BD80B582B00190019800F0B8F89C
:1004400002B080BD40F60001C4F2020145F25550F1
:10045000C0F25500086040F60801C4F202014AF6F5
:10046000AA20C0F2AA00086040F61401C4F20201FA
:100470000520086040F20041C4F20201086840F023
:100480000100086040F20841C4F20201086840F02F
:100490000200086040F21441C4F20201002008602A
:1004A0007047000043F64401C4F20201086840F4BA
:1004B000805008600021C4F20201086840F40A403C
:1004C00008602021C4F2020108680022C5F255022A
:1004D0001043086043F20001C4F2010140F60140FC
:1004E0000860086840F040000860704743F640012B
:1004F000C4F20201086840F001000860086840F09A
:10050000080008602821C4F200010F20086024219F
:10051000C4F200010020086040F62842C4F2000244
:1005200043F67F61116040F62441C4F20001086087
:1005300040F60041C4F20001086840F0080008607D
:100540007047000088B0079006910592079800F068
:10055000070004900498C0F10700052803D3FFE7C3
:100560000420019004E00498C0F107000190FFE727
:100570000198039004980430062803D8FFE7002070
:10058000009003E0049803380090FFE70098029081
:1005900006980399012202FA01F101390840029BF1
:1005A000984005999A40013A1140084308B07047B5
:1005B00080B582B0009000980138B0F1807F03D3FD
:1005C000FFE70120019019E0009801384EF2140174
:1005D000CEF2000108604FF0FF300F2100F0C0F8AC
:1005E0004EF21801CEF20001002008604EF2100217
:1005F000CEF20002072111600190FFE7019802B0DE
:1006000080BD000080B5FFF793FE80BD86B000215D
:1006100005910491022003900291019043F6080095
:10062000C4F20200006800F00C00059005980090EC
:1006300040B1FFE7009804280ED0FFE70098082893
:1006400014D059E040F20001C2F2000142F2004031
:10065000C0F2F400086059E040F20001C2F200016B
:1006600047F64000C0F27D1008604FE043F60400FA
:10067000C4F202000168C1F380510291006800F0E9
:100680003F000190029888B1FFE7019947F64000CA
:10069000C0F27D10B0FBF1F043F60401C4F2020198
:1006A0000968C1F388114843049010E0019942F2AF
:1006B0000040C0F2F400B0FBF1F043F60401C4F2D4
:1006C00002010968C1F3881148430490FFE743F62B
:1006D0000400C4F20200006800F44031022000EB84
:1006E000D130039004980399B0FBF1F040F200017F
:1006F000C2F20001086009E040F20001C2F200010C
:1007000042F20040C0F2F4000860FFE743F6080040
:10071000C4F202000068C0B2010941F20650C0F6FE
:100720000000405C0590059A40F20001C2F2000111
:100730000868D040086006B0704700004EF6885147
:10074000CEF20001086840F47000086070470000B5
:100750004EF60C50CEF200000068C0F30220704745
:1007600082B08DF8070000919DF9070000280AD497
:10077000FFE7009800019DF907104EF20042CEF20B
:10078000000288540BE0009800019DF8071001F06A
:100790000F014EF61452CEF200028854FFE702B069
:1007A0007047000083B00290029800F007000090AC
:1007B0004EF60C51CEF200010868019001984FF6F8
:1007C000FF02104001900198009A40EA02200022A6
:1007D000C0F2FA52104301900198086003B07047CC
:1007E00080B584B08DED020B9DED020B9FED0E1BCD
:1007F00053EC112B51EC100B00F0FCFB41EC100BF7
:1008000051EC100B9FED0A0B53EC102B00F02CFA5F
:1008100041EC100B00F004F951EC100B00F07EFBE2
:100820000190019804B080BD0000000000FEAF40C0
:10083000000000000000144080B588B00020079040
:10084000FFF7E4FEFFF782FDFFE70020069043F686
:100850003000C4F20200016841F00101016000684B
:1008600000F0010006900698FFE7FFE700200590E2
:1008700043F63000C4F20200016841F00201016059
:10088000006800F0020005900598FFE7FFE70020F0
:10089000049043F63000C4F20200016841F0040104
:1008A0000160006800F0040004900498FFE7FFF77F
:1008B000C9FDFFF7F7FDFFF719FE00F007F800206C
:1008C000039002900190FFE7FEE7000080B582B040
:1008D00000200190009040F62441C4F2000108601D
:1008E0002421C4F20001086040F62C41C4F200014A
:1008F00040F2E73008602C21C4F2000104200860B7
:1009000040F60041C4F20001086840F001000860B0
:100910004FF08041086840F001000860FFE740F6B2
:100920001040C4F200000068C00708B9FFE7F6E70E
:1009300040F61041C4F20001086820F00100086090
:10094000FFE71020C4F200000068C00708B9FFE705
:10095000F7E71021C4F20001086820F001000860E8
:1009600040F62441C4F200010020086040F6004136
:10097000C4F20001086840F001000860FFE740F69B
:100980001040C4F200000068C00780BBFFE7019977
:1009900040F20800C2F2000000EBC10090ED000B35
:1009A000FFF71EFF40F61401C4F20201086001982F
:1009B000421C48F21F50C5F2EB1052FB00F18811A7
:1009C00000EBD170C82100FB11200190FFE710203F
:1009D000C4F200000068C00708B9FFE7F7E710217C
:1009E000C4F20001086820F001000860C7E740F683
:1009F0001041C4F20001086820F00100086040F6D0
:100A00000041C4F20001086820F0010008604FF0C6
:100A10008041086820F00100086002B080BD00003D
:100A200010B52DED020B2DED088B84B09DED0C0B58
:100A300051EC100B00F012FC41EC180B9DED0C0B6F
:100A400053EC182B51EC100B00F062FC41EC190B2D
:100A50000D989FED290B10F0004F53EC102B51EC2B
:100A6000190B9FED21AB9FED22BB0ED000F086FA53
:100A70000ED953EC1B2B51EC190B00F0B9FB1CD217
:100A800014E000BF41EC180B17E000F077FA06D233
:100A900053EC1A2B51EC180B00F03AFCF2E753EC34
:100AA0001B2B51EC190B00F0A3FB06D853EC1A2BAF
:100AB00051EC180B00F024F8E4E78DED028B9DED6E
:100AC0000C0B18EE901A10EE900A8DED000B61F3EE
:100AD0001E0003909DED020B04B0BDEC088B02B02C
:100AE00010BD000000000000000000000000F03F0A
:100AF000000000000000E03F000000000000E0BF38
:100B000010B591EA030F48BF83F0004300F1088459
:100B1000841A71EB030C05D2121943EB0C03001B72
:100B200061EB0C014FEA1154A4EB135CDFF81CE1FC
:100B30001EEA430F18BF9EEA445F00F0748021EA6A
:100B4000045123EA0E0343F48013DCF1200E32D368
:100B500022FA0CFE10EB0E0023FA0CFE41EB0E0104
:100B6000CCF1200E03FA0EFE10EB0E00CCF1200E9D
:100B700051F10001B1F5801F32D201EB045112FA9C
:100B80000EF2BDE8104058BF7047401C38BF5FEA06
:100B9000420218BF7047002814BF20F0010041F145
:100BA00000014FEA410313F5001F38BF7047A1F160
:100BB000C04100F017BB012A43EB0302ACF1200C4B
:100BC000DCF11F0E32BF4FF0000E23FA0CF310EBD6
:100BD000030041EB0451B4EB115FD0D0A1EB045101
:100BE00001F58011490801EB04515FEA30000ED392
:100BF00050F1000038BF12FA0EFE08D1BDE81040D7
:100C0000C9E7401C38BF5FEA4202CAD1C3E7BDE86A
:100C100010404FEA410313F5001F38BF7047A1F1A0
:100C2000C04100F0DFBA9EEA445F08D011EA5E0FCF
:100C3000BDE8104004BF01F0004100207047BDE84E
:100C4000104070B500F080FA64FBBE3E0000E0FF8B
:100C5000491058BFC1F140415B1058BFC3F1404338
:100C60008B42EFF3008070472DE9C04130B4DFF8CC
:100C7000A4C23CEA111418BF3CEA131400F0ED8042
:100C80001CEA111481EA030544EAD57418BF1CEA72
:100C9000131500F0C880A4EB050404F17F7404F57B
:100CA00000344FF0004545EAC12145EAC32341EA3B
:100CB000505143EA52534FEAC0204FEAC2229942B0
:100CC00008BF904200F09D804FEA13650FF2441672
:100CD000765D4FEA134506FB05F7C7F1807706FB03
:100CE00007F74FEAD737A7FB03687642A7FB06CE84
:100CF000C8F5803838BFA8F1010807FB08E6A6FB55
:100D0000028C4FF0000EE6FB03CEDCF1000CCEF1BE
:100D1000004E38BFAEF1010EA6FB0C584FF0000795
:100D2000E6FB0E87A1FB08C6A0FB07CE16EB0E065E
:100D30004FF0000545F10005E1FB076515F1E04EB8
:100D40007EBFA4F580345FEA46066D4116F1800748
:100D500045F100054FEA172747EA05674FEA1525D1
:100D60004FEA0666A6F1DE46B6F1805F20D9384626
:100D700005EBC47124F0010C01EB0C11BCF1FE6F0A
:100D800002D8F0BCBDE8008124425CBF01F5801EA2
:100D90009EEAC47F02D4F0BCBDE80081244200F189
:100DA0003980A1F1C041F0BCBDE8004100F01ABAA1
:100DB0004FEAD02040EA41504FEAD1214FEAD222F7
:100DC00042EA43524FEAD323A7FB028607FB03669E
:100DD00005FB02661EEA0E0F58BFA6EB0056B6EBE7
:100DE00000564FEA520E4EEAC37E18EB0E0E56EB3B
:100DF000530EBCD518EB02085E417F1C55F100056F
:100E0000B5E74FF480154FF000074FF000064FF0A4
:100E10000008ACE701F1C04101F000414FF00000D3
:100E2000F0BCBDE800810CEA131511EA0C1F00D0DC
:100E30000CE013EA0C1F00F026804FF0000081EA5E
:100E4000030101F00041F0BCBDE80081F0BCBDE849
:100E5000004181EA030100F0C5B9F0BCBDE80041E2
:100E600070B500F071F900BF097EFC3E00F007B8D4
:100E70004FF0000081EA030101F00041704781EA70
:100E8000030100F0AFB9F0BCBDE8004122494FF0CA
:100E900000007047FFFDFBF9F7F5F4F2F0EEEDEB23
:100EA000E9E8E6E4E3E1E0DEDDDBDAD8D7D5D4D368
:100EB000D1D0CFCDCCCBCAC8C7C6C5C4C2C1C0BFB4
:100EC000BEBDBCBBBAB9B8B7B6B5B4B3B2B1B0AFBA
:100ED000AEADACABAAA9A8A8A7A6A5A4A3A3A2A19E
:100EE000A09F9F9E9D9C9C9B9A9999989797969559
:100EF00095949393929191908F8F8E8E8D8C8C8BF5
:100F00008B8A89898888878786858584848383827C
:100F1000828181800000FF070000F87F4FEA4103D3
:100F20004FEA5353A3F58063D3F11E03C8BFD3F137
:100F3000210C0CDD4FF0004242EAC12242EA50523D
:100F400032FA03FC8CEAE17CACEBE1707047102BC9
:100F5000C4BF0020704703F5787CBCF1FF3F04D08C
:100F60006FF0004282EA2100704770B500F0ECF8A3
:100F70004992248000207047F2E7000051EA030CF8
:100F800017D41CF5801F58BFBCF5801F00F10680E8
:100F9000994218BF704708BF9042704707D711F5B4
:100FA000801F58BF13F5801F19D49942704789429A
:100FB00070471CF5801F08D5BCF5801FF7D58B4204
:100FC00018BF704708BF824270474FF4001C1CEBEB
:100FD000410F38BF1CEB430F01D28B42704770B5F5
:100FE00000F0B2F8922449004FF000514FF08053C6
:100FF000FFF72EBE70B5DFF848C11CEA111E1EBFF8
:101000001CEA13159EEA0C0F95EA0C0F00F06F8096
:1010100081EA03044EEAD47EAE4421EA4C1123EA6D
:101020004C1341F4801143F48013AEF17F7EA1FB99
:10103000024CA0FB0365361955EB0C05A1FB034CD4
:101040004CF10003A0FB021C16EB0C06654153F1AA
:101050000003094218BF46F0010613F4007F0BD1CC
:101060004FEA03314FEA053041EA155140EA165084
:1010700034036FF003020AE04FEAC3214FEAC520B0
:1010800041EA555140EA5650F4026FF0020202EB79
:101090002E4201EB025585EACE710AD05FEA440C7C
:1010A00018BF24F0004450F1000041F1000120EA93
:1010B000D47040F2FE7C624500D270BDA84214BFDD
:1010C0004FF080444FF04044002E08BF0024BEF192
:1010D000806FA8BFA1F1C041BDE8704080F282805E
:1010E00001F1C04101F000414FF0000070470CEAEF
:1010F00013159EEA0C0F18BF95EA0C0F06D081EA73
:10110000030E4FF000000EF0004170BD00F01CF81F
:101110008900013E00F007B800F009B84FEA430C1F
:101120005FEA5C5C08D081EA030100F05BB84FEA3B
:10113000410C5FEA5C5CF6D102494FF00000704759
:101140000000FF070000F87F0EF1020E2EF0030EE4
:101150005EF8046B364205D4012A43EB030515F50E
:10116000001F12D8012841EB010C1CF5001F0CD800
:101170000ED14FEAD17C0CEB4C0C0CF1020C15F5A6
:10118000001F08BF4CEBD37C04E04FF0080C01E0DB
:101190004FEAD37C0CEB4C0526FA05F606F0070661
:1011A000B6F1040C06D20EEB860CBDE870404CF094
:1011B000010C6047DFE80CF0090B02024FF0004120
:1011C000A1F500214FF0000070BD1946104601281E
:1011D00051EB010418BFD4F5001484BF002001F0C6
:1011E000004170BD0808A0F500114FEA31017047B9
:1011F00053EA010C17D41CF5801F58BFBCF5801FA3
:1012000000F106808B4218BF704708BF82427047CA
:1012100007D713F5801F58BF11F5801F19D48B42D3
:1012200070479B4270471CF5801F08D5BCF5801F96
:10123000F7D5994218BF704708BF904270474FF4E6
:10124000001C1CEB430F38BF1CEB410F01D299422D
:1012500070470FB40CBC03BCFFF7C1BE5FEA410C82
:101260005FEA5C5CACF580635B1C39D4D3F134027B
:1012700040F34580B2F1200314DA4FF0010C0CFA70
:1012800002FCACF10103034020EA0300B3EB5C0273
:1012900008BF10EA0C0F98BF704710EB0C0041F12B
:1012A000000170470AD0C3F1200201FA02FC0128B4
:1012B0004CF1000021FA03F101FA03F14FF0010CA7
:1012C0000CFA03FCACF1010321EA0301B0F1004F79
:1012D00008BF11EA0C0F4FF0000088BF614470474F
:1012E000B3F1FF3F28BF50EAC12C01F000414FF09D
:1012F000000084BF41F07C5141F470017047B3F5A8
:10130000806FB8BF704770B5FFF71EFF40DBB6BEF9
:1013100010B591EA030F48BF83F000433FF5F8ABE7
:10132000841A71EB030C07D28CF0004C121943EBBA
:101330000C03001B61EB0C014FEA1154A4EB135C8E
:10134000DFF8A4E11EEA430F18BF9EEA445F00F0F5
:10135000B48021EA045123EA6E035242C3EB6E03C8
:1013600038BF5B1EDCF1200E25D322FA0CFE10EBF9
:101370000E0043FA0CFE41EB0E01CCF1200E03FAF5
:101380000EFE10EB0E00CCF1200E51F1000129D41D
:1013900001EB045112FA0EF2BDE8104058BF70473D
:1013A000401C1CBFB2F1004F704700280CBF491C05
:1013B00020F00100704712EB020E43EB030218BF4E
:1013C0004FF0010E4EEA4202ACF1200CDCF11E0E91
:1013D00056D943FA0CFE10EB0E00CCF11E0E51F163
:1013E000FF31D5D50EF1010E12FA0EFE404141EB50
:1013F000010101EB445C5FEA5C5C10D901EB045134
:1014000010EBDE7038BFBEF1004FBDE8104018BFD2
:10141000704700280CBF491C20F00100704734D2EF
:101420004FEAD42C24F4006411F500111BD0B1FA5A
:1014300081F20B3AA41AA41ED2F12003914030FA93
:1014400003F31943904001EBCC7101EB0451002CE4
:10145000BDE81040A8BF704701F1C04101F0004154
:101460004FF000007047B0FA80F310FA03F102D198
:10147000BDE810407047E41A173C4805C90AE2E786
:1014800001EB0451BDE81040704749104FEA3000AD
:1014900001EB0451BDE8104002E04FF0000170473D
:1014A0004A0008BF0042F8D0B2F5001F28BF7047BD
:1014B00001F000414FF0000070479EEA445F07D002
:1014C00011EA5E0FBDE8104004BF00210020704704
:1014D000BDE8104070B5FFF737FE00BF40DFF63EB5
:1014E000104683F0004170470000E0FFF1EE100A63
:1014F0004FF6FF71C0F2C03120EA010040F04070A9
:10150000E1EE100A70470000000000000000010238
:101510000304060708090000381500080000002031
:1015200050060000D0010008D8170008500600201F
:10153000680600002C02000811D324F43B9A99019C
:101540004A3F083CA93F33015AB31063B93F5AC020
:10155000183CC33F66015AC6203DC93FCDCC015956
:10156000285AD0185AD1305AD3205AD4383CD63FB2
:10157000FF015AD7283CD93F34285ADB285ADC28A7
:101580005ADE505AE0185AE0305AE1205AE2605AC6
:10159000E3285AE4285AE4285AE5285AE6285AE764
:1015A000785AE7285AE8283CE93F68285AEA885AD6
:1015B000EB505AEC283CEC3F9B285AED505AEE5029
:1015C0005AEF285AF0185AF0305AF0205AF1605A5F
:1015D000F1285AF2285AF2285AF2285AF3285AF3D4
:1015E000283CF43F67285AF4285AF4985AF5285AA8
:1015F000F5C85AF5503BF63F275BCCF6503BF73F1A
:10160000275B99F7285AF7505AF8505AF8505AF968
:101610005054F93F013CFA3F68285AFA285AFA28F0
:101620005AFB285AFBA05AFC505AFC285AFC783C1A
:10163000FD3F9B285AFD785AFDA05AFE285AFE28E5
:101640005AFF505AFF50114A4018114A4030114A6F
:101650004048114A40381162405A01285A01284B2B
:101660000140485A01285A01285A02285A02283BA8
:101670000240275B9902285A02285A03284B03404C
:10168000D05A03505A03285A03285A04285A0428C7
:101690005A04505A04285A04283C054034285A0554
:1016A000785A05503B0540273DCC0540FF0169288D
:1016B0005A06285A06285A0628540640015A07781E
:1016C0005A07785A07785A07285A07505A07505A23
:1016D00008285A08285A08A05A08285A08285A09D7
:1016E000785A09785A09285A09785A0A783C0A40DF
:1016F00068285A0A285A0A285A0AF05A0B505A0BD4
:10170000785A0B283C0B40CE285A0B283C0C403210
:10171000285A0C283C0C409B285A0C505A0C285A2A
:101720000D785A0D285A0D285A0D285A0DC86928C7
:101730005A0EC85A0E785A0E285A0E505A0F283C84
:101740000F4065285A0F283B0F40275BCC0F284AD3
:1017500010185B1910304A10205B4C10604A10289A
:101760005B8010904A10F85BB310704A10B05AE6D4
:1017700028113B1140275B1911505A11505A115032
:101780004A11C85B7F119059285BB311505A115010
:101790005A11505A12505A12504A12285B4C125089
:1017A0005A12A059285B9912A059285BCC125059A3
:1017B00028115A13505A13505A13A04A13285B6623
:1017C00013505A13A059285BB313504A137835E6C7
:0817D00013400132100000007B
:040000050800019559
:00000001FF
