:020000040800F2
:10000000F82B00207D020008850200088702000806
:10001000890200088B0200088D0200080000000021
:100020000000000000000000000000008F02000837
:100030009102000800000000930200080906000871
:10004000970200089702000897020008970200082C
:10005000970200089702000897020008970200081C
:10006000970200089702000897020008970200080C
:1000700097020008970200089702000897020008FC
:10008000970200089702000897020008000000008D
:1000900000000000000000000000000097020008BF
:1000A00097020008970200089702000897020008CC
:1000B00097020008970200089702000897020008BC
:1000C00097020008970200089702000897020008AC
:1000D000970200089702000897020008000000003D
:1000E000970200089702000897020008000000002D
:1000F000000000000000000000000000970200085F
:10010000000000009702000897020008970200080C
:1001100000000000000000000000000000000000DF
:10012000970200089702000897020008970200084B
:10013000970200080000000000000000000000001E
:10014000000000000000000000000000970200080E
:10015000970200089702000897020008970200081B
:10016000970200089702000800000000000000004D
:10017000000000000000000000000000000000007F
:1001800000000000970200080000000000000000CE
:100190009702000800F002F800F060F80AA090E86A
:1001A000000C82448344AAF10107DA4501D100F032
:1001B00055F8AFF2090EBAE80F0013F0010F18BF9F
:1001C000FB1A43F001031847A8160000C8160000E8
:1001D0000A4410F8013B13F0030408BF10F8014B68
:1001E0001D1108BF10F8015B641E05D010F8016BEB
:1001F000641E01F8016BF9D1002D15D010F8014BE8
:1002000003F00C030C2BA1EB04040ABF10F8013B14
:10021000A4EB8314A4EB032405F1010314F8016B90
:100220005B1E01F8016BF9D5914238BF10F8013B14
:10023000D1D370470023002400250026103A28BFA0
:1002400078C1FBD8520728BF30C148BF0B60704748
:100250001FB501F0F7FA1FBD10B510BD00F031F861
:100260001146FFF7F5FF00F0EBFA00F04FF803B48A
:10027000FFF7F2FF03BC00F057F800000948804781
:1002800009480047FEE7FEE7FEE7FEE7FEE7FEE778
:10029000FEE7FEE7FEE7FEE704480549054A064B90
:1002A000704700004107000895010008F82500206C
:1002B000F82B0020F8270020F8270020704770470F
:1002C0007047754600F02CF8AE4605006946534667
:1002D00020F00700854618B020B5FFF7DDFFBDE828
:1002E00020404FF000064FF000074FF000084FF09D
:1002F000000BAC46ACE8C009ACE8C009ACE8C009EA
:10030000ACE8C00921F007018D46704710B50446DE
:10031000AFF300802046BDE81040FFF7A8BF000003
:10032000004870479025002001491820ABBEFEE729
:10033000260002007047000042F28850C2F200001E
:10034000027842F2F051C2F20001086810440860DD
:100350007047000080B543F60041C4F2020108680E
:1003600040F400700860086840F480600860032072
:1003700000F05CF80F2000F005F800F03BF80020DA
:1003800080BD000080B582B0009040F20000C2F253
:100390000000006842F28851C2F200010A784FF46E
:1003A0007A71B1FBF2F1B0FBF1F000F047F820B147
:1003B000FFE701208DF8070018E000980F280DD8FE
:1003C000FFE700994FF0FF30002200F015F8009889
:1003D00042F28C51C2F20001086003E001208DF866
:1003E000070003E000208DF80700FFE79DF80700F5
:1003F00002B080BD7047000080B586B08DF8170050
:10040000049103920020029000F0A4F902909DF95B
:100410001700019002980499039A00F095F801469C
:10042000019800F09FF906B080BD000080B582B051
:100430000190019800F0B8F902B080BD80B582B09B
:100440000190019800F0B6F802B080BD40F60001BE
:10045000C4F2020145F25550C0F25500086040F662
:100460000801C4F202014AF6AA20C0F2AA000860FC
:1004700040F61401C4F202010020086040F200427C
:10048000C4F20202116841F00101116040F2084219
:10049000C4F20202116841F00201116040F21441FD
:1004A000C4F202010860704743F64401C4F202013D
:1004B000086840F4805008600021C4F20201086816
:1004C00040F40A4008602021C4F2020108680022BA
:1004D000C5F255021043086043F20001C4F2010165
:1004E00040F601400860086840F04000086070472E
:1004F00043F64001C4F20201086840F001000860C0
:10050000086840F0080008602821C4F200010F20AC
:1005100008602421C4F200010020086040F628424F
:10052000C4F2000243F67F61116040F62441C4F238
:100530000001086040F60041C4F20001086840F084
:10054000080008607047000088B007900691059287
:10055000079800F0070004900498C0F107000528F0
:1005600003D3FFE70420019004E00498C0F10700E2
:100570000190FFE70198039004980430062803D8FF
:10058000FFE70020009003E0049803380090FFE7A5
:100590000098029006980399012202FA01F10139AC
:1005A0000840029B984005999A40013A114008433F
:1005B00008B0704780B582B0009000980138B0F163
:1005C000807F03D3FFE70120019019E000980138F4
:1005D0004EF21401CEF2000108604FF0FF300F21FF
:1005E00000F0C0F84EF21801CEF2000100200860C1
:1005F0004EF21002CEF20002072111600190FFE7D7
:10060000019802B080BD000080B5FFF795FE80BD67
:1006100086B000210591049102200390029101907F
:1006200043F60800C4F20200006800F00C000590D8
:100630000598009040B1FFE7009804280ED0FFE72E
:100640000098082814D059E040F20001C2F20001DD
:1006500042F20040C0F2F400086059E040F20001AC
:10066000C2F2000147F64000C0F27D1008604FE082
:1006700043F60400C4F202000168C1F38051029104
:10068000006800F03F000190029888B1FFE70199EF
:1006900047F64000C0F27D10B0FBF1F043F60401D4
:1006A000C4F202010968C1F388114843049010E0C4
:1006B000019942F20040C0F2F400B0FBF1F043F6C1
:1006C0000401C4F202010968C1F38811484304908F
:1006D000FFE743F60400C4F20200006800F4403172
:1006E000022000EBD130039004980399B0FBF1F0A5
:1006F00040F20001C2F20001086009E040F200018E
:10070000C2F2000142F20040C0F2F4000860FFE7CC
:1007100043F60800C4F202000068C0B2010941F6C5
:100720005E00C0F60000405C0590059A40F20001B2
:10073000C2F200010868D040086006B070470000AF
:100740004EF68851CEF20001086840F4700008604F
:10075000704700004EF60C50CEF200000068C0F367
:100760000220704782B08DF8070000919DF90700C4
:1007700000280AD4FFE7009800019DF907104EF207
:100780000042CEF2000288540BE0009800019DF870
:10079000071001F00F014EF61452CEF200028854F9
:1007A000FFE702B07047000083B00290029800F0AB
:1007B000070000904EF60C51CEF20001086801903F
:1007C00001984FF6FF02104001900198009A40EA0C
:1007D00002200022C0F2FA521043019001980860F2
:1007E00003B070470000000080B584B08DED020BAF
:1007F0009DED020B9FED0E1B53EC112B51EC100BDA
:1008000000F0A4FD41EC100B51EC100B9FED0A0B16
:1008100053EC102B00F094FB41EC100B00F06CFA41
:1008200051EC100B00F0E6FC0190019804B080BD83
:100830000000000000FEAF40000000000000144077
:1008400080B590B000200F90FFF7E2FEFFF782FD29
:10085000FFE700200E9043F63000C4F2020001686A
:1008600041F001010160006800F001000E900E9857
:10087000FFE7FFE700200D9043F63000C4F20200CE
:10088000016841F002010160006800F002000D9073
:100890000D98FFE7FFE700200C9043F63000C4F20C
:1008A0000200016841F004010160006800F00400EA
:1008B0000C900C98FFE7FFF7C9FDFFF7F5FDFFF778
:1008C00017FE00F0C5F900200B900A900990FFE791
:1008D00000200290089009A800F082F90A9800F020
:1008E000E6FC41EC100B9FEDB81B53EC112B51ECC7
:1008F000100B00F02BFD41EC100B53EC102B9FED77
:10090000B40B51EC100B00F01BFB41EC100B51EC45
:10091000100B9FEDB10B53EC102B00F017FD41ECC9
:10092000100B8DED040B9DED040B00F0E5F951EC7F
:10093000100B00F08FFC01460298039140F6244111
:10094000C4F2000108602421C4F2000108600B9881
:10095000013840F62C41C4F20001086003980138C8
:100960002C21C4F20001086040F60041C4F20001ED
:10097000086840F0010008604FF08041086840F0CE
:1009800001000860FFE740F61040C4F20000006874
:10099000C007002840F0DF80FFE7FFE71020C4F227
:1009A00000000068C00708B9FFE7F7E709980138B9
:1009B00001460191052800F2C6800199DFE801F0A7
:1009C0000323436383A3089940F24860C2F2000006
:1009D00000EBC10090ED000BFFF706FF40F614019D
:1009E000C4F2020108600898421C48F21F50C5F288
:1009F000EB1052FB00F1881100EBD170C82100FB15
:100A0000112008909FE0089940F68840C2F200004B
:100A100000EBC10090ED000BFFF7E6FE40F614017D
:100A2000C4F2020108600898421C48F21F50C5F247
:100A3000EB1052FB00F1881100EBD170C82100FBD4
:100A4000112008907FE0089941F64870C2F200003A
:100A500000EBC10090ED000BFFF7C6FE40F614015D
:100A6000C4F2020108600898421C48F21F50C5F207
:100A7000EB1052FB00F1881100EBD170C82100FB94
:100A8000112008905FE0089940F20800C2F20000CF
:100A900000EBC10090ED000BFFF7A6FE40F614013D
:100AA000C4F2020108600898421C48F21F50C5F2C7
:100AB000EB1052FB00F1881100EBD170C82100FB54
:100AC000112008903FE0089941F2C820C2F20000CE
:100AD00000EBC10090ED000BFFF786FE40F614011D
:100AE000C4F2020108600898421C48F21F50C5F287
:100AF000EB1052FB00F1881100EBD170C82100FB14
:100B0000112008901FE0089941F60810C2F2000079
:100B100000EBC10090ED000BFFF766FE40F61401FC
:100B2000C4F2020108600898421C48F21F50C5F246
:100B3000EB1052FB00F1881100EBD170C82100FBD3
:100B400011200890FFE71021C4F20001086820F08E
:100B50000100086017E740F61041C4F20001086880
:100B600020F00100086040F60041C4F2000108686E
:100B700020F0010008604FF08041086820F001007B
:100B8000086040F61401C4F202010020086040F23F
:100B90001442C4F20202012111600790FFE7079896
:100BA00042F20F71884205DCFFE7FFE7079801304A
:100BB0000790F4E740F21441C4F2020100200860FB
:100BC00086E600BF00BF00BF0000000000006940D3
:100BD000000000000000F03F0000000080842E4173
:100BE00081B00090FFE743F20800C4F20100006802
:100BF000C00708B9FFE7F6E743F20C00C4F20100B2
:100C0000006800990860FFE743F20800C4F20100A1
:100C10000068C00708B9FFE7F6E743F20C00C4F22A
:100C20000100006800994860FFE743F20800C4F241
:100C300001000068C00708B9FFE7F6E743F20C00BF
:100C4000C4F2010000680099886001B0704700009C
:100C500040F62441C4F20001002008602421C4F2BF
:100C60000001086040F62C41C4F200010420086035
:100C70002C21C4F20001086040F60041C4F20001DA
:100C8000086840F0010008604FF08041086840F0BB
:100C900001000860FFE740F61040C4F20000006861
:100CA000C00708B9FFE7F6E740F61041C4F20001BB
:100CB000086820F001000860FFE71020C4F200007F
:100CC0000068C00708B9FFE7F7E71021C4F2000188
:100CD000086820F00100086040F60041C4F20001FD
:100CE000086820F0010008604FF08041086820F09B
:100CF000010008607047000010B52DED020B2DEDCE
:100D0000088B84B09DED0C0B51EC100B00F052FCE5
:100D100041EC180B9DED0C0B53EC182B51EC100B08
:100D200000F0A2FC41EC190B0D989FED290B10F07F
:100D3000004F53EC102B51EC190B9FED21AB9FEDA5
:100D400022BB0ED000F0C6FA0ED953EC1B2B51EC8F
:100D5000190B00F0F9FB1CD214E000BF41EC180B9A
:100D600017E000F0B7FA06D253EC1A2B51EC180B2F
:100D700000F07AFCF2E753EC1B2B51EC190B00F05E
:100D8000E3FB06D853EC1A2B51EC180B00F024F8B7
:100D9000E4E78DED028B9DED0C0B18EE901A10EE32
:100DA000900A8DED000B61F31E0003909DED020B88
:100DB00004B0BDEC088B02B010BD000000000000C4
:100DC000000000000000F03F000000000000E03FD5
:100DD000000000000000E0BF10B591EA030F48BF1B
:100DE00083F0004300F14884841A71EB030C05D2B0
:100DF000121943EB0C03001B61EB0C014FEA115479
:100E0000A4EB135CDFF81CE11EEA430F18BF9EEA57
:100E1000445F00F0748021EA045123EA0E0343F496
:100E20008013DCF1200E32D322FA0CFE10EB0E0000
:100E300023FA0CFE41EB0E01CCF1200E03FA0EFE5C
:100E400010EB0E00CCF1200E51F10001B1F5801F26
:100E500032D201EB045112FA0EF2BDE8104058BF35
:100E60007047401C38BF5FEA420218BF7047002835
:100E700014BF20F0010041F100014FEA410313F5D6
:100E8000001F38BF7047A1F1C04100F057BB012AD5
:100E900043EB0302ACF1200CDCF11F0E32BF4FF02C
:100EA000000E23FA0CF310EB030041EB0451B4EBFA
:100EB000115FD0D0A1EB045101F58011490801EB7D
:100EC00004515FEA30000ED350F1000038BF12FA2F
:100ED0000EFE08D1BDE81040C9E7401C38BF5FEAEC
:100EE0004202CAD1C3E7BDE810404FEA410313F5FF
:100EF000001F38BF7047A1F1C04100F01FBB9EEA40
:100F0000445F08D011EA5E0FBDE8104004BF01F055
:100F1000004100207047BDE8104070B500F0C0FAF5
:100F200064FBBE3E0000E0FF491058BFC1F14041E4
:100F30005B1058BFC3F140438B42EFF30080704712
:100F40002DE9C04130B4DFF8A4C23CEA111418BF47
:100F50003CEA131400F0ED801CEA111481EA030549
:100F600044EAD57418BF1CEA131500F0C880A4EB3E
:100F7000050404F17F7404F500344FF0004545EAA0
:100F8000C12145EAC32341EA505143EA52534FEA93
:100F9000C0204FEAC222994208BF904200F09D80D3
:100FA0004FEA13650FF24416765D4FEA134506FBD0
:100FB00005F7C7F1807706FB07F74FEAD737A7FB9E
:100FC00003687642A7FB06CEC8F5803838BFA8F183
:100FD000010807FB08E6A6FB028C4FF0000EE6FBBB
:100FE00003CEDCF1000CCEF1004E38BFAEF1010EA5
:100FF000A6FB0C584FF00007E6FB0E87A1FB08C6C6
:10100000A0FB07CE16EB0E064FF0000545F10005DC
:10101000E1FB076515F1E04E7EBFA4F580345FEA81
:1010200046066D4116F1800745F100054FEA172786
:1010300047EA05674FEA15254FEA0666A6F1DE4640
:10104000B6F1805F20D9384605EBC47124F0010C5D
:1010500001EB0C11BCF1FE6F02D8F0BCBDE80081C1
:1010600024425CBF01F5801E9EEAC47F02D4F0BC1E
:10107000BDE80081244200F13980A1F1C041F0BCFB
:10108000BDE8004100F05ABA4FEAD02040EA415092
:101090004FEAD1214FEAD22242EA43524FEAD32308
:1010A000A7FB028607FB036605FB02661EEA0E0F1E
:1010B00058BFA6EB0056B6EB00564FEA520E4EEA6A
:1010C000C37E18EB0E0E56EB530EBCD518EB020880
:1010D0005E417F1C55F10005B5E74FF480154FF0D8
:1010E00000074FF000064FF00008ACE701F1C041E7
:1010F00001F000414FF00000F0BCBDE800810CEAB7
:10110000131511EA0C1F00D00CE013EA0C1F00F0BD
:1011100026804FF0000081EA030101F00041F0BC9D
:10112000BDE80081F0BCBDE8004181EA030100F0A8
:1011300005BAF0BCBDE8004170B500F0B1F900BFE0
:10114000097EFC3E00F007B84FF0000081EA030181
:1011500001F00041704781EA030100F0EFB9F0BCF3
:10116000BDE8004122494FF000007047FFFDFBF948
:10117000F7F5F4F2F0EEEDEBE9E8E6E4E3E1E0DECA
:10118000DDDBDAD8D7D5D4D3D1D0CFCDCCCBCAC83C
:10119000C7C6C5C4C2C1C0BFBEBDBCBBBAB9B8B763
:1011A000B6B5B4B3B2B1B0AFAEADACABAAA9A8A856
:1011B000A7A6A5A4A3A3A2A1A09F9F9E9D9C9C9B24
:1011C0009A999998979796959594939392919190CF
:1011D0008F8F8E8E8D8C8C8B8B8A89898888878760
:1011E0008685858484838382828181800000FF07D5
:1011F0000000F87F4FEA41034FEA5353A3F58063A1
:10120000D3F11E03C8BFD3F1210C0CDD4FF0004217
:1012100042EAC12242EA505232FA03FC8CEAE17CF3
:10122000ACEBE1707047102BC4BF0020704703F592
:10123000787CBCF1FF3F04D06FF0004282EA2100CD
:10124000704770B500F02CF9499224800020704757
:10125000F2E700004FEA1153A3F58063D3F11E03B8
:10126000A8BFD3F1200C08DB4FF0004242EAC122B4
:1012700052EA505232FA03F0704709420BD4102B55
:10128000C4BF0020704703F5787CBCF1FF3F05D058
:101290004FF0FF3070474FF00000704770B500F01E
:1012A000FFF800BF4992248000207047F0E7B0FAB1
:1012B00080F310FA03F10AD0C3F11D0303F5806334
:1012C0004FEA03524FEA415002EBD12170474FF0F1
:1012D0000000704751EA030C17D41CF5801F58BF5B
:1012E000BCF5801F00F10680994218BF704708BF07
:1012F0009042704707D711F5801F58BF13F5801F24
:1013000019D499427047894270471CF5801F08D54F
:10131000BCF5801FF7D58B4218BF704708BF8242CB
:1013200070474FF4001C1CEB410F38BF1CEB430F00
:1013300001D28B42704770B500F0B2F89224490098
:101340004FF000514FF08053FFF7EEBD70B5DFF85E
:1013500048C11CEA111E1EBF1CEA13159EEA0C0FA1
:1013600095EA0C0F00F06F8081EA03044EEAD47E08
:10137000AE4421EA4C1123EA4C1341F4801143F4AA
:101380008013AEF17F7EA1FB024CA0FB03653619F2
:1013900055EB0C05A1FB034C4CF10003A0FB021C18
:1013A00016EB0C06654153F10003094218BF46F0E5
:1013B000010613F4007F0BD14FEA03314FEA0530E9
:1013C00041EA155140EA165034036FF003020AE077
:1013D0004FEAC3214FEAC52041EA555140EA565031
:1013E000F4026FF0020202EB2E4201EB025585EA95
:1013F000CE710AD05FEA440C18BF24F0004450F1CB
:10140000000041F1000120EAD47040F2FE7C624508
:1014100000D270BDA84214BF4FF080444FF040444A
:10142000002E08BF0024BEF1806FA8BFA1F1C0410B
:10143000BDE8704080F2828001F1C04101F00041BE
:101440004FF0000070470CEA13159EEA0C0F18BF0E
:1014500095EA0C0F06D081EA030E4FF000000EF063
:10146000004170BD00F01CF88900013E00F007B893
:1014700000F009B84FEA430C5FEA5C5C08D081EAEF
:10148000030100F05BB84FEA410C5FEA5C5CF6D107
:1014900002494FF0000070470000FF070000F87F8E
:1014A0000EF1020E2EF0030E5EF8046B364205D4E8
:1014B000012A43EB030515F5001F12D8012841EB63
:1014C000010C1CF5001F0CD80ED14FEAD17C0CEB9F
:1014D0004C0C0CF1020C15F5001F08BF4CEBD37C33
:1014E00004E04FF0080C01E04FEAD37C0CEB4C0514
:1014F00026FA05F606F00706B6F1040C06D20EEB46
:10150000860CBDE870404CF0010C6047DFE80CF041
:10151000090B02024FF00041A1F500214FF000003D
:1015200070BD19461046012851EB010418BFD4F5CF
:10153000001484BF002001F0004170BD0808A0F530
:1015400000114FEA3101704753EA010C17D41CF522
:10155000801F58BFBCF5801F00F106808B4218BF6A
:10156000704708BF8242704707D713F5801F58BFE6
:1015700011F5801F19D48B4270479B4270471CF5B0
:10158000801F08D5BCF5801FF7D5994218BF70475A
:1015900008BF904270474FF4001C1CEB430F38BF4C
:1015A0001CEB410F01D2994270470FB40CBC03BC35
:1015B000FFF7C1BE5FEA410C5FEA5C5CACF580639B
:1015C0005B1C39D4D3F1340240F34580B2F12003DF
:1015D00014DA4FF0010C0CFA02FCACF101030340E9
:1015E00020EA0300B3EB5C0208BF10EA0C0F98BFBF
:1015F000704710EB0C0041F1000170470AD0C3F1B5
:10160000200201FA02FC01284CF1000021FA03F14A
:1016100001FA03F14FF0010C0CFA03FCACF10103E9
:1016200021EA0301B0F1004F08BF11EA0C0F4FF09F
:10163000000088BF61447047B3F1FF3F28BF50EA04
:10164000C12C01F000414FF0000084BF41F07C51FB
:1016500041F470017047B3F5806FB8BF704770B543
:10166000FFF71EFF40DBB6BE10B591EA030F48BF7F
:1016700083F000433FF5B8AB841A71EB030C07D23B
:101680008CF0004C121943EB0C03001B61EB0C01B6
:101690004FEA1154A4EB135CDFF8A4E11EEA430FF8
:1016A00018BF9EEA445F00F0B48021EA045123EAA7
:1016B0006E035242C3EB6E0338BF5B1EDCF1200E9B
:1016C00025D322FA0CFE10EB0E0043FA0CFE41EB80
:1016D0000E01CCF1200E03FA0EFE10EB0E00CCF141
:1016E000200E51F1000129D401EB045112FA0EF23F
:1016F000BDE8104058BF7047401C1CBFB2F1004FFE
:10170000704700280CBF491C20F00100704712EB05
:10171000020E43EB030218BF4FF0010E4EEA4202E5
:10172000ACF1200CDCF11E0E56D943FA0CFE10EB86
:101730000E00CCF11E0E51F1FF31D5D50EF1010E88
:1017400012FA0EFE404141EB010101EB445C5FEAFD
:101750005C5C10D901EB045110EBDE7038BFBEF1B8
:10176000004FBDE8104018BF704700280CBF491C4F
:1017700020F00100704734D24FEAD42C24F40064E6
:1017800011F500111BD0B1FA81F20B3AA41AA41E74
:10179000D2F12003914030FA03F31943904001EB5A
:1017A000CC7101EB0451002CBDE81040A8BF70477C
:1017B00001F1C04101F000414FF000007047B0FA64
:1017C00080F310FA03F102D1BDE810407047E41A2B
:1017D000173C4805C90AE2E701EB0451BDE8104097
:1017E000704749104FEA300001EB0451BDE810404A
:1017F00002E04FF0000170474A0008BF0042F8D0F5
:10180000B2F5001F28BF704701F000414FF0000003
:1018100070479EEA445F07D011EA5E0FBDE81040B2
:1018200004BF002100207047BDE8104070B5FFF7ED
:1018300037FE00BF40DFF63E104683F000417047A0
:101840000000E0FFF1EE100A4FF6FF71C0F2C03168
:1018500020EA010040F04070E1EE100A70470000FD
:101860000000000000000102030406070809000050
:10187000901800080000002090250000D00100080A
:101880009825000890250020680600003402000812
:1018900080050024F4000100FF000440483E1BE5E1
:1018A0006B50044074A9CBB5D2A004402F92F85DD0
:1018B0002FF10440858B2DCA7C4105401E7FECE74B
:1018C000B5910540DFB1FFA5D5E10540DDB3CBF40F
:1018D000D63106405B36A1C6B4810640B4C20E10B4
:1018E0006AD106400A4D32C8F1200740899D0AE9B5
:1018F00046700740238BC86F64BF0740A202205D7B
:10190000450E0840E8D498B5E45C08405847DF81AC
:101910003DAB0840306114CF4AF90840E6F01DAFF6
:10192000074709406444F6386F9409401A8FFB88D2
:101930007CE10940E9F83EC12A2E0A40EE50D30965
:10194000757A0A40255F1B9156C60A40F7CF178C5F
:10195000CA110B40D8B4B436CC5C0B40EF9416D40B
:1019600056A70B400C09E7AE65F10B40FEDDA01950
:10197000F43A0C4081B8DB6EFD830C40FD359711C5
:101980007DCC0C406085856D6E140D404A7355F713
:10199000CC5B0D40EAE4FB2C00FF0094A20D40EB71
:1019A000BCFC95BFE80D40CE25B3C34A2E0E4022A5
:1019B0003D995131730E40121B8FE56EB70E40DA20
:1019C000312130FFFA0E409200CEECDD3D0F401683
:1019D000154BE206800F407B58C9E275C10F40F4F9
:1019E000501C6613011040C44545C40A2110409D97
:1019F00042FA069F4010408A90982FCE5F1040AA6E
:101A00004AE045967E1040EA371458F59C10407B1A
:101A10003B197BE9BA1040065A95CA70D81040A409
:101A2000510E6989F51040B0C20780311211409003
:101A3000E72040672E114087D931E1284A1140C480
:101A40006068A274651140D44D64CA48801140B6E4
:101A50005A53A7A39A1140B9910C8F83B4114089AE
:101A6000382BDFE6CD11409C3D29FDCBE611405BD4
:101A700026795631FF1140747C9F60151712409EE5
:101A8000B84B99762E124053A9708653451240E701
:101A9000535CB6AA5B12408A4E00FF00CFBF7A713A
:101AA0001240A4911342C286124033BF12E57F9BBD
:101AB0001240AEDE6B59B2AF12401C8C885858C32E
:101AC00012400499B1A470D61240E21D2309FAE82D
:101AD0001240E6FA1F5AF3FA1240BCC604755B0CBA
:101AE00013402F2A5A40311D13407AA7E6AB732DBD
:101AF000134026CCBFB0213D134067CC5A513A4C1D
:101B00001340E6869C99BC5A1340F3EFE89EA76801
:101B1000134028E33180FA751340905A0566B48269
:101B200013406C0A9B82D48E1340B460E1115A9A20
:101B3000134080E7895944A51340A60915A992AF1F
:101B40001340B038DD5944B913408D7321CF58C2CA
:101B50001340462D0F76CFCA13402093CBC5A7D292
:101B600013408A317C3FE1D913405DF74E6E7BE034
:101B70001340D19681E775E61340D043684AD0EB15
:101B8000134021CF73408AF013400D1E377DA3F41C
:101B9000134036FE6BBE1BF813404C214055F7CB6B
:101BA000F2FA134002ACEC7728FD13402A15919EFF
:101BB000BCFE1340F66E5D26AFFF13402003721487
:101BC0001061206130614061506160617052D1806C
:101BD00052D29061A061B061C061D0528EE061F0DC
:101BE000650065106520566D30654065506560562E
:101BF000E770566880659065A05630B065C065D0C6
:101C000065E065F069005AAD106920693069406986
:101C1000505A52606970698069905A9BA069B06996
:101C2000C069D05AD5E05AC3F05E8600036D100338
:101C30006D20036D30036D40036D50036D60035ED6
:101C4000AB70035E8B80035E9E90035EC3A0036D4A
:101C5000B0035E7CC0035E17D0035E94E0035EDBDE
:101C6000F0035E1400045E2410045ECD20045EEADE
:101C700030045EE940046D50046D60045EFE700443
:101C80005E8280044F00DE90045E0FA0045EF2B01E
:101C9000045ED9C0045EF6D0045E24E0045EEFF07A
:101CA000046D00056D10055E6620055EE830055E7A
:101CB0003240056D50055EEA60055EA070056D80DE
:101CC000056D90055E0BA0055EB6B0055E5CC005B7
:101CD0005EDFD0056DE0056DF0055E8700065E30C5
:101CE00010065E7320066D30066D40066D38066D79
:101CF00030066D28066D20066D18066D10066D08FD
:101D0000066D00066DF8056DF0056DE8056DE005E2
:101D10006DD8056DD00565686DC0056DB8056DB0F1
:101D2000056DA8056DA0056D98056D90056D88057C
:101D30006D80056D78056D70056D680569A06D583D
:101D40000569D06D48056D40056D18036D30036D54
:101D500028056D60036D78036D10056DA8036D0097
:101D6000056DF8046DF0046DE8046DE0046DD804B1
:101D70006DD0046DC8046D80046D98046DB0046D61
:101D8000C804612061306D90046D88046D40056D5C
:101D900078046D7005619061A061B06D500461D0F0
:101DA0006D400461F06D30046D28046D60066D189F
:101DB000046D90066D08046D00046DF8036DF0036A
:101DC000659065A06DD8036DD0036DC8036DC00329
:101DD0006DB8036DB0036DA8036DA00369306D90FD
:101DE000036D88036D80036D78036D70086D680363
:101DF0006D60036D58036D50036D48037D40035DB6
:101E000018096D30036D28035E01200300FF008E6A
:101E100056344A2D5F03407B74D23583BE02402284
:101E20004E005A2A1E0240A5C95E394B7E0140F67B
:101E3000B2CD370EDF0040DC7437909B400040305D
:101E400056CE943646FF3FA43DD7616A0DFE3F3C17
:101E500077138E21D7FC3F300E827DAAA3FB3FB5BE
:101E600041C9DD5273FA3F519696926746F93FE9B0
:101E7000ED31A2341DF83F038F482205F8F63F3CB0
:101E8000F5F42423D7F53F2C3608A6D7BAF43F64DF
:101E9000B499786AA3F33FDDC9E1342291F23FDFC0
:101EA000FE63264484F13F104F6D3A147DF03FE20B
:101EB000D1D5DDA9F7EE3FAC7B3B838E01ED3FB47E
:101EC000405E3F5518EB3FD62F55AB793CE93F8A32
:101ED000EAC1FF736EE73FC83371F6B8AEE53F5C09
:101EE00091DDACB9FDE33F34729B87E35BE23F24B5
:101EF00013B616A0C9E03FC03808F6A98EDE3FE051
:101F00006AF598C7AADB3F58170B0354E87C8BD8B7
:101F10003FD00CD4AE0148D63F403E77777ACAD343
:101F20003FE021CE6D5F70D13F7028675F9174CE26
:101F30003FB0102B838A51CA3F1073A6D4B578C620
:101F40003FA001E2220CEBC23F205CA97EE652BF1B
:101F50003F20D3A7877B69B93F6096BDBA551BB4B4
:101F60003F4039466F98D3AE3F4070361A1DACA63D
:101F70003F80A308B191849F3F802FBC97B52F94D9
:101F80003F00E6C39105B9863F0002AB22D034740E
:101F90003F0060ADEE1636543FF30A6110612061D8
:101FA00030614051506160520070528080619052A7
:101FB00000A05290B06200C051D061E052C8F066FB
:101FC00050005510666820553056B040561E505689
:101FD000306056507056BC80666E9055A056B8B0B2
:101FE00065C056E4D05608E056D8F05AD6005A5C80
:101FF000105A24205A3E304BFB8E405AEA505A5217
:10200000605AB6705A2C805A33905A9BA05A26B008
:102010005ADDC05AF4D05AA3E05A1EF06D00035E98
:102020008C100302FF000101FF0101FF01012001EB
:1020300003FF14400801FF0801FF08011908019E71
:1020400001039CF03F0803A4004008029508080221
:10205000FF1008014408029D08080D9E20030D9FF3
:102060006804019701339A9901423F083004A93F5F
:10207000330152B31052B9C852C0183004C33F667E
:102080000152C6203005C93FCDCC0151F052D018C5
:1020900052D13052D32052D4383004D63FFF0152AF
:1020A000D7283004D93F342852DB2852DC2856DEAA
:1020B0004052E01852E03052E12052E26056E368AC
:1020C00052E42852E42852E52852E62852E7785292
:1020D000E72852E8283004E93F682852EA8856EB9E
:1020E000B852EC283004EC3F9B2852ED5052EE5091
:1020F0007EEFD806411852F03052F02052F1605273
:10210000F12852F22852F22852F22852F32852F3C0
:10211000283004F43F672852F42852F49852F528E6
:1021200052F5C852F55047F63F7F52F65047F73FF9
:10213000CF52F72852F75052F85052F85052F950F7
:102140004FF93FA81156FA0852FA2852FA2852FBC2
:102150002852FBA052FC5052FC2852FC7856FD2815
:1021600052FD7852FDA052FE2852FE2852FF507EAA
:10217000FF800749704B004058470040704B0040BB
:10218000586D00075201285201284B0140B85201F6
:10219000285E0190155202285202284B0240DF525D
:1021A00002285E02B81552032847034070520350BC
:1021B0005203286DA00F5204285204285204505292
:1021C00004286D08164B0540C85205785205504F3B
:1021D00005401F034B0540F8612852062852062887
:1021E0005206285E0638135207785207785207784D
:1021F00052072852075052075052082852082852B6
:1022000008A0520828520828520978520978520921
:1022100028520978520A784F0A401803520A285265
:102220000A285E0AB806520B50520B78520B283C13
:10223000040B40CE0F045E0BE00634040C4032E188
:10224000520C28560CE0520C505E0C0807520D78C8
:10225000520D28520D28520D28520DC86128520ED9
:10226000C8520E78520E285E0E5807520F283804B6
:102270000F406559520F28560F407E0FC00839484D
:10228000531910304610B0534C10605DE008538075
:1022900010904210F853B310704210B06EE6080967
:1022A0004A1170531911505211505211504A1108CD
:1022B000537F1190512853B311505211505E11E8C1
:1022C0000B5212505212504E121803534C125052CD
:1022D00012A05128539912A0512853CC12505128C2
:1022E000530013505213505213A05613785DF81B2D
:1022F000538013A0512853B313504213786EE670E5
:10230000176D40067EA930066D28066D20066D18F3
:10231000066D10066D08066D00066DF8056DF0057A
:102320006DE8056DE0056DD8056DD0056DC8056DCE
:10233000C0056DB8056DB0056DA8056DA0056D985B
:10234000056D90056D88056D80056D78056D7005CE
:102350006D68056D60056D58056D50056D48056D1E
:1023600040056D38056D30056D28056D20056D182B
:10237000056D10056D08056D00056DF8046DF00420
:102380006DE8046DE0046DD8046DD0046DC8046D73
:10239000C0046DB8046D901A6DA8046DA0046D980A
:1023A000046D90046D88046D80046D78046D700474
:1023B0006D68046D60046D58046D50046D48046DC3
:1023C00040046D38046D30046D28046D20046D18D0
:1023D000046D10046D08046D00046DF8036DF003C6
:1023E0006DE8036DE0036DD8036DD0036DC8036D18
:1023F000C0036DB8036DB0036DA8036DA0036D98A5
:10240000036D90036D88036D80036D78036D700319
:102410006D68036D60036D58036D50036D48036D67
:1024200040036D38036D30036D28036D401F6D3818
:10243000034D6709813061406D98034D47098170F4
:102440004D90035DD0036233785212285D68048298
:1024500099D041285D60045EFFC8041DA004412896
:10246000852041285610B85C0410409818054DA8E6
:1024700005760F7041803C040E40025005520E2834
:10248000520D285E0D48055E0C88056DC8057E0C52
:1024900008065A31004128520A286D40065C040A99
:1024A0004097800641285209285E08A0068D680ED4
:1024B000496852072858040740CBB04DD8055E063E
:1024C000A80C6D48075205285205285204288DB0E3
:1024D0001D6DE8074DB0075203285202286D2008F1
:1024E0007E02600841285201285200288D800C4D40
:1024F00028095EFF40095C04FE3F9C08095ED2206B
:10250000095E0638095E2E50095E6268095E9640D3
:10251000045ECA98094D60096DA0095EF75804521F
:10252000F6505C04F53FD0100A41506D180A52F382
:102530005052F25052F1508D7811414852EE405CA9
:1025400004EC3F3830055EA040054DF00A5EE80817
:102550000B5C04E63FC070055E28800549207EE1E3
:10256000900B414852DC405C04D93F70D0055E308E
:10257000E0056D080C41204FC93F41064FC33F01A4
:10258000035C04B93F80680C2D780A000500100038
:08259000000000000000000043
:040000050800019559
:00000001FF
